{
  "_format": "hh-sol-artifact-1",
  "contractName": "CarOwnership",
  "sourceName": "contracts/CarOwnership.sol",
  "abi": [
    {
      "anonymous": false,
      "inputs": [
        {
          "indexed": false,
          "internalType": "uint256",
          "name": "carId",
          "type": "uint256"
        },
        {
          "indexed": false,
          "internalType": "string",
          "name": "make",
          "type": "string"
        },
        {
          "indexed": false,
          "internalType": "string",
          "name": "model",
          "type": "string"
        },
        {
          "indexed": false,
          "internalType": "uint256",
          "name": "year",
          "type": "uint256"
        },
        {
          "indexed": false,
          "internalType": "address",
          "name": "owner",
          "type": "address"
        }
      ],
      "name": "CarAdded",
      "type": "event"
    },
    {
      "anonymous": false,
      "inputs": [
        {
          "indexed": false,
          "internalType": "address",
          "name": "owner",
          "type": "address"
        },
        {
          "indexed": false,
          "internalType": "string",
          "name": "name",
          "type": "string"
        }
      ],
      "name": "OwnerAdded",
      "type": "event"
    },
    {
      "anonymous": false,
      "inputs": [
        {
          "indexed": false,
          "internalType": "uint256",
          "name": "carId",
          "type": "uint256"
        },
        {
          "indexed": false,
          "internalType": "address",
          "name": "previousOwner",
          "type": "address"
        },
        {
          "indexed": false,
          "internalType": "address",
          "name": "newOwner",
          "type": "address"
        }
      ],
      "name": "OwnershipTransferred",
      "type": "event"
    },
    {
      "anonymous": false,
      "inputs": [
        {
          "indexed": false,
          "internalType": "uint256",
          "name": "transactionId",
          "type": "uint256"
        },
        {
          "indexed": false,
          "internalType": "uint256",
          "name": "carId",
          "type": "uint256"
        },
        {
          "indexed": false,
          "internalType": "address",
          "name": "previousOwner",
          "type": "address"
        },
        {
          "indexed": false,
          "internalType": "address",
          "name": "newOwner",
          "type": "address"
        },
        {
          "indexed": false,
          "internalType": "uint256",
          "name": "timestamp",
          "type": "uint256"
        }
      ],
      "name": "TransactionRecorded",
      "type": "event"
    },
    {
      "inputs": [
        {
          "internalType": "string",
          "name": "_make",
          "type": "string"
        },
        {
          "internalType": "string",
          "name": "_model",
          "type": "string"
        },
        {
          "internalType": "uint256",
          "name": "_year",
          "type": "uint256"
        },
        {
          "internalType": "address",
          "name": "_owner",
          "type": "address"
        }
      ],
      "name": "addCar",
      "outputs": [],
      "stateMutability": "nonpayable",
      "type": "function"
    },
    {
      "inputs": [
        {
          "internalType": "string",
          "name": "_name",
          "type": "string"
        },
        {
          "internalType": "address",
          "name": "_owner",
          "type": "address"
        }
      ],
      "name": "addOwner",
      "outputs": [],
      "stateMutability": "nonpayable",
      "type": "function"
    },
    {
      "inputs": [
        {
          "internalType": "uint256",
          "name": "",
          "type": "uint256"
        }
      ],
      "name": "cars",
      "outputs": [
        {
          "internalType": "string",
          "name": "make",
          "type": "string"
        },
        {
          "internalType": "string",
          "name": "model",
          "type": "string"
        },
        {
          "internalType": "uint256",
          "name": "year",
          "type": "uint256"
        },
        {
          "internalType": "address",
          "name": "owner",
          "type": "address"
        }
      ],
      "stateMutability": "view",
      "type": "function"
    },
    {
      "inputs": [
        {
          "internalType": "uint256",
          "name": "_carId",
          "type": "uint256"
        },
        {
          "internalType": "address",
          "name": "_newOwner",
          "type": "address"
        }
      ],
      "name": "changeOwner",
      "outputs": [],
      "stateMutability": "nonpayable",
      "type": "function"
    },
    {
      "inputs": [],
      "name": "getAllTransactions",
      "outputs": [
        {
          "components": [
            {
              "internalType": "uint256",
              "name": "carId",
              "type": "uint256"
            },
            {
              "internalType": "address",
              "name": "previousOwner",
              "type": "address"
            },
            {
              "internalType": "address",
              "name": "newOwner",
              "type": "address"
            },
            {
              "internalType": "uint256",
              "name": "timestamp",
              "type": "uint256"
            }
          ],
          "internalType": "struct CarOwnership.Transaction[]",
          "name": "",
          "type": "tuple[]"
        }
      ],
      "stateMutability": "view",
      "type": "function"
    },
    {
      "inputs": [
        {
          "internalType": "address",
          "name": "_owner",
          "type": "address"
        }
      ],
      "name": "getOwner",
      "outputs": [
        {
          "internalType": "string",
          "name": "",
          "type": "string"
        }
      ],
      "stateMutability": "view",
      "type": "function"
    },
    {
      "inputs": [
        {
          "internalType": "address",
          "name": "_owner",
          "type": "address"
        }
      ],
      "name": "getOwnerCars",
      "outputs": [
        {
          "internalType": "uint256[]",
          "name": "",
          "type": "uint256[]"
        }
      ],
      "stateMutability": "view",
      "type": "function"
    },
    {
      "inputs": [
        {
          "internalType": "address",
          "name": "",
          "type": "address"
        }
      ],
      "name": "owners",
      "outputs": [
        {
          "internalType": "string",
          "name": "name",
          "type": "string"
        },
        {
          "internalType": "address",
          "name": "owner",
          "type": "address"
        }
      ],
      "stateMutability": "view",
      "type": "function"
    },
    {
      "inputs": [],
      "name": "totalCars",
      "outputs": [
        {
          "internalType": "uint256",
          "name": "",
          "type": "uint256"
        }
      ],
      "stateMutability": "view",
      "type": "function"
    },
    {
      "inputs": [],
      "name": "totalTransactions",
      "outputs": [
        {
          "internalType": "uint256",
          "name": "",
          "type": "uint256"
        }
      ],
      "stateMutability": "view",
      "type": "function"
    },
    {
      "inputs": [
        {
          "internalType": "uint256",
          "name": "",
          "type": "uint256"
        }
      ],
      "name": "transactions",
      "outputs": [
        {
          "internalType": "uint256",
          "name": "carId",
          "type": "uint256"
        },
        {
          "internalType": "address",
          "name": "previousOwner",
          "type": "address"
        },
        {
          "internalType": "address",
          "name": "newOwner",
          "type": "address"
        },
        {
          "internalType": "uint256",
          "name": "timestamp",
          "type": "uint256"
        }
      ],
      "stateMutability": "view",
      "type": "function"
    }
  ],
  "bytecode": "0x608060405234801561001057600080fd5b50611e79806100206000396000f3fe608060405234801561001057600080fd5b50600436106100a95760003560e01c80639ace38c2116100715780639ace38c214610167578063b9a600381461019a578063d5958b86146101b8578063f7746e36146101d4578063fa54416114610207578063fac2165a14610237576100a9565b8063022914a7146100ae578063214e563c146100df57806327506f53146100fd578063784796f71461011b578063914fe30914610137575b600080fd5b6100c860048036038101906100c3919061113e565b610253565b6040516100d692919061120a565b60405180910390f35b6100e761031f565b6040516100f49190611253565b60405180910390f35b610105610325565b6040516101129190611390565b60405180910390f35b610135600480360381019061013091906113de565b6104b4565b005b610151600480360381019061014c919061113e565b610808565b60405161015e91906114cd565b60405180910390f35b610181600480360381019061017c91906114ef565b6109c6565b604051610191949392919061151c565b60405180910390f35b6101a2610a36565b6040516101af9190611253565b60405180910390f35b6101d260048036038101906101cd9190611696565b610a3c565b005b6101ee60048036038101906101e991906114ef565b610b87565b6040516101fe94939291906116f2565b60405180910390f35b610221600480360381019061021c919061113e565b610ce7565b60405161022e9190611745565b60405180910390f35b610251600480360381019061024c9190611767565b610e78565b005b600160205280600052604060002060009150905080600001805461027690611835565b80601f01602080910402602001604051908101604052809291908181526020018280546102a290611835565b80156102ef5780601f106102c4576101008083540402835291602001916102ef565b820191906000526020600020905b8154815290600101906020018083116102d257829003601f168201915b5050505050908060010160009054906101000a900473ffffffffffffffffffffffffffffffffffffffff16905082565b60035481565b6060600060045467ffffffffffffffff8111156103455761034461156b565b5b60405190808252806020026020018201604052801561037e57816020015b61036b61100e565b8152602001906001900390816103635790505b5090506000600190505b60045481116104ac5760026000828152602001908152602001600020604051806080016040529081600082015481526020016001820160009054906101000a900473ffffffffffffffffffffffffffffffffffffffff1673ffffffffffffffffffffffffffffffffffffffff1673ffffffffffffffffffffffffffffffffffffffff1681526020016002820160009054906101000a900473ffffffffffffffffffffffffffffffffffffffff1673ffffffffffffffffffffffffffffffffffffffff1673ffffffffffffffffffffffffffffffffffffffff1681526020016003820154815250508260018361047d9190611895565b8151811061048e5761048d6118c9565b5b602002602001018190525080806104a4906118f8565b915050610388565b508091505090565b6003548211156104f9576040517f08c379a00000000000000000000000000000000000000000000000000000000081526004016104f09061198c565b60405180910390fd5b60008083815260200190815260200160002060030160009054906101000a900473ffffffffffffffffffffffffffffffffffffffff1673ffffffffffffffffffffffffffffffffffffffff163373ffffffffffffffffffffffffffffffffffffffff161461059c576040517f08c379a000000000000000000000000000000000000000000000000000000000815260040161059390611a1e565b60405180910390fd5b600080600084815260200190815260200160002060030160009054906101000a900473ffffffffffffffffffffffffffffffffffffffff1690508160008085815260200190815260200160002060030160006101000a81548173ffffffffffffffffffffffffffffffffffffffff021916908373ffffffffffffffffffffffffffffffffffffffff1602179055506004600081548092919061063d906118f8565b919050555060405180608001604052808481526020018273ffffffffffffffffffffffffffffffffffffffff1681526020018373ffffffffffffffffffffffffffffffffffffffff168152602001428152506002600060045481526020019081526020016000206000820151816000015560208201518160010160006101000a81548173ffffffffffffffffffffffffffffffffffffffff021916908373ffffffffffffffffffffffffffffffffffffffff16021790555060408201518160020160006101000a81548173ffffffffffffffffffffffffffffffffffffffff021916908373ffffffffffffffffffffffffffffffffffffffff1602179055506060820151816003015590505060008084815260200190815260200160002060040160045490806001815401808255809150506001900390600052602060002001600090919091909150557f16b85f49bf01212961345d3016c9a531894accf62eb7680f2045d79185cc0ec08382846040516107ba93929190611a3e565b60405180910390a17f4bb86a8504e257f90fe72dcaa3a3d0dfb04b72836b57aa6882b7bc2a1b82a4d1600454848385426040516107fb959493929190611a75565b60405180910390a1505050565b6060600060035467ffffffffffffffff8111156108285761082761156b565b5b6040519080825280602002602001820160405280156108565781602001602082028036833780820191505090505b509050600080600190505b6003548111610914578473ffffffffffffffffffffffffffffffffffffffff1660008083815260200190815260200160002060030160009054906101000a900473ffffffffffffffffffffffffffffffffffffffff1673ffffffffffffffffffffffffffffffffffffffff160361090157808383815181106108e6576108e56118c9565b5b60200260200101818152505081806108fd906118f8565b9250505b808061090c906118f8565b915050610861565b5060008167ffffffffffffffff8111156109315761093061156b565b5b60405190808252806020026020018201604052801561095f5781602001602082028036833780820191505090505b50905060005b828110156109ba578381815181106109805761097f6118c9565b5b602002602001015182828151811061099b5761099a6118c9565b5b60200260200101818152505080806109b2906118f8565b915050610965565b50809350505050919050565b60026020528060005260406000206000915090508060000154908060010160009054906101000a900473ffffffffffffffffffffffffffffffffffffffff16908060020160009054906101000a900473ffffffffffffffffffffffffffffffffffffffff16908060030154905084565b60045481565b6000825111610a80576040517f08c379a0000000000000000000000000000000000000000000000000000000008152600401610a7790611b14565b60405180910390fd5b60405180604001604052808381526020018273ffffffffffffffffffffffffffffffffffffffff16815250600160008373ffffffffffffffffffffffffffffffffffffffff1673ffffffffffffffffffffffffffffffffffffffff1681526020019081526020016000206000820151816000019081610aff9190611ce0565b5060208201518160010160006101000a81548173ffffffffffffffffffffffffffffffffffffffff021916908373ffffffffffffffffffffffffffffffffffffffff1602179055509050507f7adcb4720057d6b9b1d9dc7f206a6dc456794ecdbf145763cc55d76930c3ab868183604051610b7b929190611db2565b60405180910390a15050565b6000602052806000526040600020600091509050806000018054610baa90611835565b80601f0160208091040260200160405190810160405280929190818152602001828054610bd690611835565b8015610c235780601f10610bf857610100808354040283529160200191610c23565b820191906000526020600020905b815481529060010190602001808311610c0657829003601f168201915b505050505090806001018054610c3890611835565b80601f0160208091040260200160405190810160405280929190818152602001828054610c6490611835565b8015610cb15780601f10610c8657610100808354040283529160200191610cb1565b820191906000526020600020905b815481529060010190602001808311610c9457829003601f168201915b5050505050908060020154908060030160009054906101000a900473ffffffffffffffffffffffffffffffffffffffff16905084565b60606000600160008473ffffffffffffffffffffffffffffffffffffffff1673ffffffffffffffffffffffffffffffffffffffff168152602001908152602001600020604051806040016040529081600082018054610d4590611835565b80601f0160208091040260200160405190810160405280929190818152602001828054610d7190611835565b8015610dbe5780601f10610d9357610100808354040283529160200191610dbe565b820191906000526020600020905b815481529060010190602001808311610da157829003601f168201915b505050505081526020016001820160009054906101000a900473ffffffffffffffffffffffffffffffffffffffff1673ffffffffffffffffffffffffffffffffffffffff1673ffffffffffffffffffffffffffffffffffffffff16815250509050600081600001515103610e6a576040518060400160405280601c81526020017f4f776e657220686173206e6f74206164646564206e616d652079657400000000815250915050610e73565b80600001519150505b919050565b60036000815480929190610e8b906118f8565b91905055506040518060a001604052808581526020018481526020018381526020018273ffffffffffffffffffffffffffffffffffffffff168152602001600067ffffffffffffffff811115610ee457610ee361156b565b5b604051908082528060200260200182016040528015610f125781602001602082028036833780820191505090505b5081525060008060035481526020019081526020016000206000820151816000019081610f3f9190611ce0565b506020820151816001019081610f559190611ce0565b506040820151816002015560608201518160030160006101000a81548173ffffffffffffffffffffffffffffffffffffffff021916908373ffffffffffffffffffffffffffffffffffffffff1602179055506080820151816004019080519060200190610fc3929190611062565b509050507f3c6221d26c8cfdd8fbeb173e573eea85225eac7151869936d500b0a5aeed147560035485858585604051611000959493929190611de2565b60405180910390a150505050565b604051806080016040528060008152602001600073ffffffffffffffffffffffffffffffffffffffff168152602001600073ffffffffffffffffffffffffffffffffffffffff168152602001600081525090565b82805482825590600052602060002090810192821561109e579160200282015b8281111561109d578251825591602001919060010190611082565b5b5090506110ab91906110af565b5090565b5b808211156110c85760008160009055506001016110b0565b5090565b6000604051905090565b600080fd5b600080fd5b600073ffffffffffffffffffffffffffffffffffffffff82169050919050565b600061110b826110e0565b9050919050565b61111b81611100565b811461112657600080fd5b50565b60008135905061113881611112565b92915050565b600060208284031215611154576111536110d6565b5b600061116284828501611129565b91505092915050565b600081519050919050565b600082825260208201905092915050565b60005b838110156111a557808201518184015260208101905061118a565b60008484015250505050565b6000601f19601f8301169050919050565b60006111cd8261116b565b6111d78185611176565b93506111e7818560208601611187565b6111f0816111b1565b840191505092915050565b61120481611100565b82525050565b6000604082019050818103600083015261122481856111c2565b905061123360208301846111fb565b9392505050565b6000819050919050565b61124d8161123a565b82525050565b60006020820190506112686000830184611244565b92915050565b600081519050919050565b600082825260208201905092915050565b6000819050602082019050919050565b6112a38161123a565b82525050565b6112b281611100565b82525050565b6080820160008201516112ce600085018261129a565b5060208201516112e160208501826112a9565b5060408201516112f460408501826112a9565b506060820151611307606085018261129a565b50505050565b600061131983836112b8565b60808301905092915050565b6000602082019050919050565b600061133d8261126e565b6113478185611279565b93506113528361128a565b8060005b8381101561138357815161136a888261130d565b975061137583611325565b925050600181019050611356565b5085935050505092915050565b600060208201905081810360008301526113aa8184611332565b905092915050565b6113bb8161123a565b81146113c657600080fd5b50565b6000813590506113d8816113b2565b92915050565b600080604083850312156113f5576113f46110d6565b5b6000611403858286016113c9565b925050602061141485828601611129565b9150509250929050565b600081519050919050565b600082825260208201905092915050565b6000819050602082019050919050565b6000611456838361129a565b60208301905092915050565b6000602082019050919050565b600061147a8261141e565b6114848185611429565b935061148f8361143a565b8060005b838110156114c05781516114a7888261144a565b97506114b283611462565b925050600181019050611493565b5085935050505092915050565b600060208201905081810360008301526114e7818461146f565b905092915050565b600060208284031215611505576115046110d6565b5b6000611513848285016113c9565b91505092915050565b60006080820190506115316000830187611244565b61153e60208301866111fb565b61154b60408301856111fb565b6115586060830184611244565b95945050505050565b600080fd5b600080fd5b7f4e487b7100000000000000000000000000000000000000000000000000000000600052604160045260246000fd5b6115a3826111b1565b810181811067ffffffffffffffff821117156115c2576115c161156b565b5b80604052505050565b60006115d56110cc565b90506115e1828261159a565b919050565b600067ffffffffffffffff8211156116015761160061156b565b5b61160a826111b1565b9050602081019050919050565b82818337600083830152505050565b6000611639611634846115e6565b6115cb565b90508281526020810184848401111561165557611654611566565b5b611660848285611617565b509392505050565b600082601f83011261167d5761167c611561565b5b813561168d848260208601611626565b91505092915050565b600080604083850312156116ad576116ac6110d6565b5b600083013567ffffffffffffffff8111156116cb576116ca6110db565b5b6116d785828601611668565b92505060206116e885828601611129565b9150509250929050565b6000608082019050818103600083015261170c81876111c2565b9050818103602083015261172081866111c2565b905061172f6040830185611244565b61173c60608301846111fb565b95945050505050565b6000602082019050818103600083015261175f81846111c2565b905092915050565b60008060008060808587031215611781576117806110d6565b5b600085013567ffffffffffffffff81111561179f5761179e6110db565b5b6117ab87828801611668565b945050602085013567ffffffffffffffff8111156117cc576117cb6110db565b5b6117d887828801611668565b93505060406117e9878288016113c9565b92505060606117fa87828801611129565b91505092959194509250565b7f4e487b7100000000000000000000000000000000000000000000000000000000600052602260045260246000fd5b6000600282049050600182168061184d57607f821691505b6020821081036118605761185f611806565b5b50919050565b7f4e487b7100000000000000000000000000000000000000000000000000000000600052601160045260246000fd5b60006118a08261123a565b91506118ab8361123a565b92508282039050818111156118c3576118c2611866565b5b92915050565b7f4e487b7100000000000000000000000000000000000000000000000000000000600052603260045260246000fd5b60006119038261123a565b91507fffffffffffffffffffffffffffffffffffffffffffffffffffffffffffffffff820361193557611934611866565b5b600182019050919050565b7f496e76616c696420636172204944000000000000000000000000000000000000600082015250565b6000611976600e83611176565b915061198182611940565b602082019050919050565b600060208201905081810360008301526119a581611969565b9050919050565b7f596f7520617265206e6f74207468652063757272656e74206f776e6572206f6660008201527f2074686973206361720000000000000000000000000000000000000000000000602082015250565b6000611a08602983611176565b9150611a13826119ac565b604082019050919050565b60006020820190508181036000830152611a37816119fb565b9050919050565b6000606082019050611a536000830186611244565b611a6060208301856111fb565b611a6d60408301846111fb565b949350505050565b600060a082019050611a8a6000830188611244565b611a976020830187611244565b611aa460408301866111fb565b611ab160608301856111fb565b611abe6080830184611244565b9695505050505050565b7f4f776e6572206e616d652063616e6e6f7420626520656d707479000000000000600082015250565b6000611afe601a83611176565b9150611b0982611ac8565b602082019050919050565b60006020820190508181036000830152611b2d81611af1565b9050919050565b60008190508160005260206000209050919050565b60006020601f8301049050919050565b600082821b905092915050565b600060088302611b967fffffffffffffffffffffffffffffffffffffffffffffffffffffffffffffffff82611b59565b611ba08683611b59565b95508019841693508086168417925050509392505050565b6000819050919050565b6000611bdd611bd8611bd38461123a565b611bb8565b61123a565b9050919050565b6000819050919050565b611bf783611bc2565b611c0b611c0382611be4565b848454611b66565b825550505050565b600090565b611c20611c13565b611c2b818484611bee565b505050565b5b81811015611c4f57611c44600082611c18565b600181019050611c31565b5050565b601f821115611c9457611c6581611b34565b611c6e84611b49565b81016020851015611c7d578190505b611c91611c8985611b49565b830182611c30565b50505b505050565b600082821c905092915050565b6000611cb760001984600802611c99565b1980831691505092915050565b6000611cd08383611ca6565b9150826002028217905092915050565b611ce98261116b565b67ffffffffffffffff811115611d0257611d0161156b565b5b611d0c8254611835565b611d17828285611c53565b600060209050601f831160018114611d4a5760008415611d38578287015190505b611d428582611cc4565b865550611daa565b601f198416611d5886611b34565b60005b82811015611d8057848901518255600182019150602085019450602081019050611d5b565b86831015611d9d5784890151611d99601f891682611ca6565b8355505b6001600288020188555050505b505050505050565b6000604082019050611dc760008301856111fb565b8181036020830152611dd981846111c2565b90509392505050565b600060a082019050611df76000830188611244565b8181036020830152611e0981876111c2565b90508181036040830152611e1d81866111c2565b9050611e2c6060830185611244565b611e3960808301846111fb565b969550505050505056fea2646970667358221220009c8641119eb3de4198026463adf41d2206c0868577a2ba3a82da17e4eeeb1d64736f6c63430008130033",
  "linkReferences": {},
  "deployedLinkReferences": {}
}