{
    "_format": "hh-sol-artifact-1",
    "contractName": "CarOwnership",
    "sourceName": "contracts/CarOwnership.sol",
    "abi": [
        {
            "anonymous": false,
            "inputs": [
                {
                    "indexed": false,
                    "internalType": "uint256",
                    "name": "carId",
                    "type": "uint256"
                },
                {
                    "indexed": false,
                    "internalType": "string",
                    "name": "make",
                    "type": "string"
                },
                {
                    "indexed": false,
                    "internalType": "string",
                    "name": "model",
                    "type": "string"
                },
                {
                    "indexed": false,
                    "internalType": "uint256",
                    "name": "year",
                    "type": "uint256"
                },
                {
                    "indexed": false,
                    "internalType": "address",
                    "name": "owner",
                    "type": "address"
                }
            ],
            "name": "CarAdded",
            "type": "event"
        },
        {
            "anonymous": false,
            "inputs": [
                {
                    "indexed": false,
                    "internalType": "address",
                    "name": "owner",
                    "type": "address"
                },
                {
                    "indexed": false,
                    "internalType": "string",
                    "name": "name",
                    "type": "string"
                }
            ],
            "name": "OwnerAdded",
            "type": "event"
        },
        {
            "anonymous": false,
            "inputs": [
                {
                    "indexed": false,
                    "internalType": "uint256",
                    "name": "carId",
                    "type": "uint256"
                },
                {
                    "indexed": false,
                    "internalType": "address",
                    "name": "previousOwner",
                    "type": "address"
                },
                {
                    "indexed": false,
                    "internalType": "address",
                    "name": "newOwner",
                    "type": "address"
                }
            ],
            "name": "OwnershipTransferred",
            "type": "event"
        },
        {
            "inputs": [
                {
                    "internalType": "string",
                    "name": "_make",
                    "type": "string"
                },
                {
                    "internalType": "string",
                    "name": "_model",
                    "type": "string"
                },
                {
                    "internalType": "uint256",
                    "name": "_year",
                    "type": "uint256"
                },
                {
                    "internalType": "address",
                    "name": "_owner",
                    "type": "address"
                }
            ],
            "name": "addCar",
            "outputs": [],
            "stateMutability": "nonpayable",
            "type": "function"
        },
        {
            "inputs": [
                {
                    "internalType": "string",
                    "name": "_name",
                    "type": "string"
                },
                {
                    "internalType": "address",
                    "name": "_owner",
                    "type": "address"
                }
            ],
            "name": "addOwner",
            "outputs": [],
            "stateMutability": "nonpayable",
            "type": "function"
        },
        {
            "inputs": [
                {
                    "internalType": "uint256",
                    "name": "",
                    "type": "uint256"
                }
            ],
            "name": "cars",
            "outputs": [
                {
                    "internalType": "string",
                    "name": "make",
                    "type": "string"
                },
                {
                    "internalType": "string",
                    "name": "model",
                    "type": "string"
                },
                {
                    "internalType": "uint256",
                    "name": "year",
                    "type": "uint256"
                },
                {
                    "internalType": "address",
                    "name": "owner",
                    "type": "address"
                }
            ],
            "stateMutability": "view",
            "type": "function"
        },
        {
            "inputs": [
                {
                    "internalType": "uint256",
                    "name": "_carId",
                    "type": "uint256"
                },
                {
                    "internalType": "address",
                    "name": "_newOwner",
                    "type": "address"
                }
            ],
            "name": "changeOwner",
            "outputs": [],
            "stateMutability": "nonpayable",
            "type": "function"
        },
        {
            "inputs": [
                {
                    "internalType": "address",
                    "name": "_owner",
                    "type": "address"
                }
            ],
            "name": "getOwner",
            "outputs": [
                {
                    "internalType": "string",
                    "name": "",
                    "type": "string"
                }
            ],
            "stateMutability": "view",
            "type": "function"
        },
        {
            "inputs": [
                {
                    "internalType": "address",
                    "name": "_owner",
                    "type": "address"
                }
            ],
            "name": "getOwnerCars",
            "outputs": [
                {
                    "internalType": "uint256[]",
                    "name": "",
                    "type": "uint256[]"
                }
            ],
            "stateMutability": "view",
            "type": "function"
        },
        {
            "inputs": [
                {
                    "internalType": "address",
                    "name": "",
                    "type": "address"
                }
            ],
            "name": "owners",
            "outputs": [
                {
                    "internalType": "string",
                    "name": "name",
                    "type": "string"
                },
                {
                    "internalType": "address",
                    "name": "owner",
                    "type": "address"
                }
            ],
            "stateMutability": "view",
            "type": "function"
        },
        {
            "inputs": [],
            "name": "totalCars",
            "outputs": [
                {
                    "internalType": "uint256",
                    "name": "",
                    "type": "uint256"
                }
            ],
            "stateMutability": "view",
            "type": "function"
        }
    ],
    "bytecode": "0x608060405234801561001057600080fd5b506115e6806100206000396000f3fe608060405234801561001057600080fd5b50600436106100885760003560e01c8063d5958b861161005b578063d5958b8614610128578063f7746e3614610144578063fa54416114610177578063fac2165a146101a757610088565b8063022914a71461008d578063214e563c146100be578063784796f7146100dc578063914fe309146100f8575b600080fd5b6100a760048036038101906100a29190610b3e565b6101c3565b6040516100b5929190610c0a565b60405180910390f35b6100c661028f565b6040516100d39190610c53565b60405180910390f35b6100f660048036038101906100f19190610c9a565b610295565b005b610112600480360381019061010d9190610b3e565b6103a8565b60405161011f9190610d98565b60405180910390f35b610142600480360381019061013d9190610eef565b610566565b005b61015e60048036038101906101599190610f4b565b6106b1565b60405161016e9493929190610f78565b60405180910390f35b610191600480360381019061018c9190610b3e565b610811565b60405161019e9190610fcb565b60405180910390f35b6101c160048036038101906101bc9190610fed565b6109a2565b005b60016020528060005260406000206000915090508060000180546101e6906110bb565b80601f0160208091040260200160405190810160405280929190818152602001828054610212906110bb565b801561025f5780601f106102345761010080835404028352916020019161025f565b820191906000526020600020905b81548152906001019060200180831161024257829003601f168201915b5050505050908060010160009054906101000a900473ffffffffffffffffffffffffffffffffffffffff16905082565b60025481565b6002548211156102da576040517f08c379a00000000000000000000000000000000000000000000000000000000081526004016102d190611138565b60405180910390fd5b600080600084815260200190815260200160002060030160009054906101000a900473ffffffffffffffffffffffffffffffffffffffff1690508160008085815260200190815260200160002060030160006101000a81548173ffffffffffffffffffffffffffffffffffffffff021916908373ffffffffffffffffffffffffffffffffffffffff1602179055507f16b85f49bf01212961345d3016c9a531894accf62eb7680f2045d79185cc0ec083828460405161039b93929190611158565b60405180910390a1505050565b6060600060025467ffffffffffffffff8111156103c8576103c7610dc4565b5b6040519080825280602002602001820160405280156103f65781602001602082028036833780820191505090505b509050600080600190505b60025481116104b4578473ffffffffffffffffffffffffffffffffffffffff1660008083815260200190815260200160002060030160009054906101000a900473ffffffffffffffffffffffffffffffffffffffff1673ffffffffffffffffffffffffffffffffffffffff16036104a157808383815181106104865761048561118f565b5b602002602001018181525050818061049d906111ed565b9250505b80806104ac906111ed565b915050610401565b5060008167ffffffffffffffff8111156104d1576104d0610dc4565b5b6040519080825280602002602001820160405280156104ff5781602001602082028036833780820191505090505b50905060005b8281101561055a578381815181106105205761051f61118f565b5b602002602001015182828151811061053b5761053a61118f565b5b6020026020010181815250508080610552906111ed565b915050610505565b50809350505050919050565b60008251116105aa576040517f08c379a00000000000000000000000000000000000000000000000000000000081526004016105a190611281565b60405180910390fd5b60405180604001604052808381526020018273ffffffffffffffffffffffffffffffffffffffff16815250600160008373ffffffffffffffffffffffffffffffffffffffff1673ffffffffffffffffffffffffffffffffffffffff1681526020019081526020016000206000820151816000019081610629919061144d565b5060208201518160010160006101000a81548173ffffffffffffffffffffffffffffffffffffffff021916908373ffffffffffffffffffffffffffffffffffffffff1602179055509050507f7adcb4720057d6b9b1d9dc7f206a6dc456794ecdbf145763cc55d76930c3ab8681836040516106a592919061151f565b60405180910390a15050565b60006020528060005260406000206000915090508060000180546106d4906110bb565b80601f0160208091040260200160405190810160405280929190818152602001828054610700906110bb565b801561074d5780601f106107225761010080835404028352916020019161074d565b820191906000526020600020905b81548152906001019060200180831161073057829003601f168201915b505050505090806001018054610762906110bb565b80601f016020809104026020016040519081016040528092919081815260200182805461078e906110bb565b80156107db5780601f106107b0576101008083540402835291602001916107db565b820191906000526020600020905b8154815290600101906020018083116107be57829003601f168201915b5050505050908060020154908060030160009054906101000a900473ffffffffffffffffffffffffffffffffffffffff16905084565b60606000600160008473ffffffffffffffffffffffffffffffffffffffff1673ffffffffffffffffffffffffffffffffffffffff16815260200190815260200160002060405180604001604052908160008201805461086f906110bb565b80601f016020809104026020016040519081016040528092919081815260200182805461089b906110bb565b80156108e85780601f106108bd576101008083540402835291602001916108e8565b820191906000526020600020905b8154815290600101906020018083116108cb57829003601f168201915b505050505081526020016001820160009054906101000a900473ffffffffffffffffffffffffffffffffffffffff1673ffffffffffffffffffffffffffffffffffffffff1673ffffffffffffffffffffffffffffffffffffffff16815250509050600081600001515103610994576040518060400160405280601c81526020017f4f776e657220686173206e6f74206164646564206e616d65207965740000000081525091505061099d565b80600001519150505b919050565b600260008154809291906109b5906111ed565b919050555060405180608001604052808581526020018481526020018381526020018273ffffffffffffffffffffffffffffffffffffffff1681525060008060025481526020019081526020016000206000820151816000019081610a1a919061144d565b506020820151816001019081610a30919061144d565b506040820151816002015560608201518160030160006101000a81548173ffffffffffffffffffffffffffffffffffffffff021916908373ffffffffffffffffffffffffffffffffffffffff1602179055509050507f3c6221d26c8cfdd8fbeb173e573eea85225eac7151869936d500b0a5aeed147560025485858585604051610abe95949392919061154f565b60405180910390a150505050565b6000604051905090565b600080fd5b600080fd5b600073ffffffffffffffffffffffffffffffffffffffff82169050919050565b6000610b0b82610ae0565b9050919050565b610b1b81610b00565b8114610b2657600080fd5b50565b600081359050610b3881610b12565b92915050565b600060208284031215610b5457610b53610ad6565b5b6000610b6284828501610b29565b91505092915050565b600081519050919050565b600082825260208201905092915050565b60005b83811015610ba5578082015181840152602081019050610b8a565b60008484015250505050565b6000601f19601f8301169050919050565b6000610bcd82610b6b565b610bd78185610b76565b9350610be7818560208601610b87565b610bf081610bb1565b840191505092915050565b610c0481610b00565b82525050565b60006040820190508181036000830152610c248185610bc2565b9050610c336020830184610bfb565b9392505050565b6000819050919050565b610c4d81610c3a565b82525050565b6000602082019050610c686000830184610c44565b92915050565b610c7781610c3a565b8114610c8257600080fd5b50565b600081359050610c9481610c6e565b92915050565b60008060408385031215610cb157610cb0610ad6565b5b6000610cbf85828601610c85565b9250506020610cd085828601610b29565b9150509250929050565b600081519050919050565b600082825260208201905092915050565b6000819050602082019050919050565b610d0f81610c3a565b82525050565b6000610d218383610d06565b60208301905092915050565b6000602082019050919050565b6000610d4582610cda565b610d4f8185610ce5565b9350610d5a83610cf6565b8060005b83811015610d8b578151610d728882610d15565b9750610d7d83610d2d565b925050600181019050610d5e565b5085935050505092915050565b60006020820190508181036000830152610db28184610d3a565b905092915050565b600080fd5b600080fd5b7f4e487b7100000000000000000000000000000000000000000000000000000000600052604160045260246000fd5b610dfc82610bb1565b810181811067ffffffffffffffff82111715610e1b57610e1a610dc4565b5b80604052505050565b6000610e2e610acc565b9050610e3a8282610df3565b919050565b600067ffffffffffffffff821115610e5a57610e59610dc4565b5b610e6382610bb1565b9050602081019050919050565b82818337600083830152505050565b6000610e92610e8d84610e3f565b610e24565b905082815260208101848484011115610eae57610ead610dbf565b5b610eb9848285610e70565b509392505050565b600082601f830112610ed657610ed5610dba565b5b8135610ee6848260208601610e7f565b91505092915050565b60008060408385031215610f0657610f05610ad6565b5b600083013567ffffffffffffffff811115610f2457610f23610adb565b5b610f3085828601610ec1565b9250506020610f4185828601610b29565b9150509250929050565b600060208284031215610f6157610f60610ad6565b5b6000610f6f84828501610c85565b91505092915050565b60006080820190508181036000830152610f928187610bc2565b90508181036020830152610fa68186610bc2565b9050610fb56040830185610c44565b610fc26060830184610bfb565b95945050505050565b60006020820190508181036000830152610fe58184610bc2565b905092915050565b6000806000806080858703121561100757611006610ad6565b5b600085013567ffffffffffffffff81111561102557611024610adb565b5b61103187828801610ec1565b945050602085013567ffffffffffffffff81111561105257611051610adb565b5b61105e87828801610ec1565b935050604061106f87828801610c85565b925050606061108087828801610b29565b91505092959194509250565b7f4e487b7100000000000000000000000000000000000000000000000000000000600052602260045260246000fd5b600060028204905060018216806110d357607f821691505b6020821081036110e6576110e561108c565b5b50919050565b7f496e76616c696420636172204944000000000000000000000000000000000000600082015250565b6000611122600e83610b76565b915061112d826110ec565b602082019050919050565b6000602082019050818103600083015261115181611115565b9050919050565b600060608201905061116d6000830186610c44565b61117a6020830185610bfb565b6111876040830184610bfb565b949350505050565b7f4e487b7100000000000000000000000000000000000000000000000000000000600052603260045260246000fd5b7f4e487b7100000000000000000000000000000000000000000000000000000000600052601160045260246000fd5b60006111f882610c3a565b91507fffffffffffffffffffffffffffffffffffffffffffffffffffffffffffffffff820361122a576112296111be565b5b600182019050919050565b7f4f776e6572206e616d652063616e6e6f7420626520656d707479000000000000600082015250565b600061126b601a83610b76565b915061127682611235565b602082019050919050565b6000602082019050818103600083015261129a8161125e565b9050919050565b60008190508160005260206000209050919050565b60006020601f8301049050919050565b600082821b905092915050565b6000600883026113037fffffffffffffffffffffffffffffffffffffffffffffffffffffffffffffffff826112c6565b61130d86836112c6565b95508019841693508086168417925050509392505050565b6000819050919050565b600061134a61134561134084610c3a565b611325565b610c3a565b9050919050565b6000819050919050565b6113648361132f565b61137861137082611351565b8484546112d3565b825550505050565b600090565b61138d611380565b61139881848461135b565b505050565b5b818110156113bc576113b1600082611385565b60018101905061139e565b5050565b601f821115611401576113d2816112a1565b6113db846112b6565b810160208510156113ea578190505b6113fe6113f6856112b6565b83018261139d565b50505b505050565b600082821c905092915050565b600061142460001984600802611406565b1980831691505092915050565b600061143d8383611413565b9150826002028217905092915050565b61145682610b6b565b67ffffffffffffffff81111561146f5761146e610dc4565b5b61147982546110bb565b6114848282856113c0565b600060209050601f8311600181146114b757600084156114a5578287015190505b6114af8582611431565b865550611517565b601f1984166114c5866112a1565b60005b828110156114ed578489015182556001820191506020850194506020810190506114c8565b8683101561150a5784890151611506601f891682611413565b8355505b6001600288020188555050505b505050505050565b60006040820190506115346000830185610bfb565b81810360208301526115468184610bc2565b90509392505050565b600060a0820190506115646000830188610c44565b81810360208301526115768187610bc2565b9050818103604083015261158a8186610bc2565b90506115996060830185610c44565b6115a66080830184610bfb565b969550505050505056fea264697066735822122020e443cf164035df1ff2680898517a76b49db8855695f451cf196ec7b95900ff64736f6c63430008130033",
    "linkReferences": {},
    "deployedLinkReferences": {}
}