{
  "_format": "hh-sol-artifact-1",
  "contractName": "CarOwnership",
  "sourceName": "contracts/CarOwnership.sol",
  "abi": [
    {
      "anonymous": false,
      "inputs": [
        {
          "indexed": false,
          "internalType": "uint256",
          "name": "carId",
          "type": "uint256"
        },
        {
          "indexed": false,
          "internalType": "string",
          "name": "make",
          "type": "string"
        },
        {
          "indexed": false,
          "internalType": "string",
          "name": "model",
          "type": "string"
        },
        {
          "indexed": false,
          "internalType": "uint256",
          "name": "year",
          "type": "uint256"
        },
        {
          "indexed": false,
          "internalType": "address",
          "name": "owner",
          "type": "address"
        }
      ],
      "name": "CarAdded",
      "type": "event"
    },
    {
      "anonymous": false,
      "inputs": [
        {
          "indexed": false,
          "internalType": "address",
          "name": "owner",
          "type": "address"
        },
        {
          "indexed": false,
          "internalType": "string",
          "name": "name",
          "type": "string"
        }
      ],
      "name": "OwnerAdded",
      "type": "event"
    },
    {
      "anonymous": false,
      "inputs": [
        {
          "indexed": false,
          "internalType": "uint256",
          "name": "carId",
          "type": "uint256"
        },
        {
          "indexed": false,
          "internalType": "address",
          "name": "previousOwner",
          "type": "address"
        },
        {
          "indexed": false,
          "internalType": "address",
          "name": "newOwner",
          "type": "address"
        }
      ],
      "name": "OwnershipTransferred",
      "type": "event"
    },
    {
      "inputs": [
        {
          "internalType": "string",
          "name": "_make",
          "type": "string"
        },
        {
          "internalType": "string",
          "name": "_model",
          "type": "string"
        },
        {
          "internalType": "uint256",
          "name": "_year",
          "type": "uint256"
        },
        {
          "internalType": "address",
          "name": "_owner",
          "type": "address"
        }
      ],
      "name": "addCar",
      "outputs": [],
      "stateMutability": "nonpayable",
      "type": "function"
    },
    {
      "inputs": [
        {
          "internalType": "string",
          "name": "_name",
          "type": "string"
        },
        {
          "internalType": "address",
          "name": "_owner",
          "type": "address"
        }
      ],
      "name": "addOwner",
      "outputs": [],
      "stateMutability": "nonpayable",
      "type": "function"
    },
    {
      "inputs": [
        {
          "internalType": "uint256",
          "name": "",
          "type": "uint256"
        }
      ],
      "name": "cars",
      "outputs": [
        {
          "internalType": "string",
          "name": "make",
          "type": "string"
        },
        {
          "internalType": "string",
          "name": "model",
          "type": "string"
        },
        {
          "internalType": "uint256",
          "name": "year",
          "type": "uint256"
        },
        {
          "internalType": "address",
          "name": "owner",
          "type": "address"
        }
      ],
      "stateMutability": "view",
      "type": "function"
    },
    {
      "inputs": [
        {
          "internalType": "uint256",
          "name": "_carId",
          "type": "uint256"
        },
        {
          "internalType": "address",
          "name": "_newOwner",
          "type": "address"
        }
      ],
      "name": "changeOwner",
      "outputs": [],
      "stateMutability": "nonpayable",
      "type": "function"
    },
    {
      "inputs": [
        {
          "internalType": "address",
          "name": "_owner",
          "type": "address"
        }
      ],
      "name": "getOwner",
      "outputs": [
        {
          "internalType": "string",
          "name": "",
          "type": "string"
        }
      ],
      "stateMutability": "view",
      "type": "function"
    },
    {
      "inputs": [
        {
          "internalType": "address",
          "name": "_owner",
          "type": "address"
        }
      ],
      "name": "getOwnerCars",
      "outputs": [
        {
          "internalType": "uint256[]",
          "name": "",
          "type": "uint256[]"
        }
      ],
      "stateMutability": "view",
      "type": "function"
    },
    {
      "inputs": [
        {
          "internalType": "address",
          "name": "",
          "type": "address"
        }
      ],
      "name": "owners",
      "outputs": [
        {
          "internalType": "string",
          "name": "name",
          "type": "string"
        },
        {
          "internalType": "address",
          "name": "owner",
          "type": "address"
        }
      ],
      "stateMutability": "view",
      "type": "function"
    },
    {
      "inputs": [],
      "name": "totalCars",
      "outputs": [
        {
          "internalType": "uint256",
          "name": "",
          "type": "uint256"
        }
      ],
      "stateMutability": "view",
      "type": "function"
    }
  ],
  "bytecode": "0x608060405234801561001057600080fd5b5061171b806100206000396000f3fe608060405234801561001057600080fd5b50600436106100885760003560e01c8063d5958b861161005b578063d5958b8614610128578063f7746e3614610144578063fa54416114610177578063fac2165a146101a757610088565b8063022914a71461008d578063214e563c146100be578063784796f7146100dc578063914fe309146100f8575b600080fd5b6100a760048036038101906100a29190610be1565b6101c3565b6040516100b5929190610cad565b60405180910390f35b6100c661028f565b6040516100d39190610cf6565b60405180910390f35b6100f660048036038101906100f19190610d3d565b610295565b005b610112600480360381019061010d9190610be1565b61044b565b60405161011f9190610e3b565b60405180910390f35b610142600480360381019061013d9190610f92565b610609565b005b61015e60048036038101906101599190610fee565b610754565b60405161016e949392919061101b565b60405180910390f35b610191600480360381019061018c9190610be1565b6108b4565b60405161019e919061106e565b60405180910390f35b6101c160048036038101906101bc9190611090565b610a45565b005b60016020528060005260406000206000915090508060000180546101e69061115e565b80601f01602080910402602001604051908101604052809291908181526020018280546102129061115e565b801561025f5780601f106102345761010080835404028352916020019161025f565b820191906000526020600020905b81548152906001019060200180831161024257829003601f168201915b5050505050908060010160009054906101000a900473ffffffffffffffffffffffffffffffffffffffff16905082565b60025481565b6002548211156102da576040517f08c379a00000000000000000000000000000000000000000000000000000000081526004016102d1906111db565b60405180910390fd5b60008083815260200190815260200160002060030160009054906101000a900473ffffffffffffffffffffffffffffffffffffffff1673ffffffffffffffffffffffffffffffffffffffff163373ffffffffffffffffffffffffffffffffffffffff161461037d576040517f08c379a00000000000000000000000000000000000000000000000000000000081526004016103749061126d565b60405180910390fd5b600080600084815260200190815260200160002060030160009054906101000a900473ffffffffffffffffffffffffffffffffffffffff1690508160008085815260200190815260200160002060030160006101000a81548173ffffffffffffffffffffffffffffffffffffffff021916908373ffffffffffffffffffffffffffffffffffffffff1602179055507f16b85f49bf01212961345d3016c9a531894accf62eb7680f2045d79185cc0ec083828460405161043e9392919061128d565b60405180910390a1505050565b6060600060025467ffffffffffffffff81111561046b5761046a610e67565b5b6040519080825280602002602001820160405280156104995781602001602082028036833780820191505090505b509050600080600190505b6002548111610557578473ffffffffffffffffffffffffffffffffffffffff1660008083815260200190815260200160002060030160009054906101000a900473ffffffffffffffffffffffffffffffffffffffff1673ffffffffffffffffffffffffffffffffffffffff16036105445780838381518110610529576105286112c4565b5b602002602001018181525050818061054090611322565b9250505b808061054f90611322565b9150506104a4565b5060008167ffffffffffffffff81111561057457610573610e67565b5b6040519080825280602002602001820160405280156105a25781602001602082028036833780820191505090505b50905060005b828110156105fd578381815181106105c3576105c26112c4565b5b60200260200101518282815181106105de576105dd6112c4565b5b60200260200101818152505080806105f590611322565b9150506105a8565b50809350505050919050565b600082511161064d576040517f08c379a0000000000000000000000000000000000000000000000000000000008152600401610644906113b6565b60405180910390fd5b60405180604001604052808381526020018273ffffffffffffffffffffffffffffffffffffffff16815250600160008373ffffffffffffffffffffffffffffffffffffffff1673ffffffffffffffffffffffffffffffffffffffff16815260200190815260200160002060008201518160000190816106cc9190611582565b5060208201518160010160006101000a81548173ffffffffffffffffffffffffffffffffffffffff021916908373ffffffffffffffffffffffffffffffffffffffff1602179055509050507f7adcb4720057d6b9b1d9dc7f206a6dc456794ecdbf145763cc55d76930c3ab868183604051610748929190611654565b60405180910390a15050565b60006020528060005260406000206000915090508060000180546107779061115e565b80601f01602080910402602001604051908101604052809291908181526020018280546107a39061115e565b80156107f05780601f106107c5576101008083540402835291602001916107f0565b820191906000526020600020905b8154815290600101906020018083116107d357829003601f168201915b5050505050908060010180546108059061115e565b80601f01602080910402602001604051908101604052809291908181526020018280546108319061115e565b801561087e5780601f106108535761010080835404028352916020019161087e565b820191906000526020600020905b81548152906001019060200180831161086157829003601f168201915b5050505050908060020154908060030160009054906101000a900473ffffffffffffffffffffffffffffffffffffffff16905084565b60606000600160008473ffffffffffffffffffffffffffffffffffffffff1673ffffffffffffffffffffffffffffffffffffffff1681526020019081526020016000206040518060400160405290816000820180546109129061115e565b80601f016020809104026020016040519081016040528092919081815260200182805461093e9061115e565b801561098b5780601f106109605761010080835404028352916020019161098b565b820191906000526020600020905b81548152906001019060200180831161096e57829003601f168201915b505050505081526020016001820160009054906101000a900473ffffffffffffffffffffffffffffffffffffffff1673ffffffffffffffffffffffffffffffffffffffff1673ffffffffffffffffffffffffffffffffffffffff16815250509050600081600001515103610a37576040518060400160405280601c81526020017f4f776e657220686173206e6f74206164646564206e616d652079657400000000815250915050610a40565b80600001519150505b919050565b60026000815480929190610a5890611322565b919050555060405180608001604052808581526020018481526020018381526020018273ffffffffffffffffffffffffffffffffffffffff1681525060008060025481526020019081526020016000206000820151816000019081610abd9190611582565b506020820151816001019081610ad39190611582565b506040820151816002015560608201518160030160006101000a81548173ffffffffffffffffffffffffffffffffffffffff021916908373ffffffffffffffffffffffffffffffffffffffff1602179055509050507f3c6221d26c8cfdd8fbeb173e573eea85225eac7151869936d500b0a5aeed147560025485858585604051610b61959493929190611684565b60405180910390a150505050565b6000604051905090565b600080fd5b600080fd5b600073ffffffffffffffffffffffffffffffffffffffff82169050919050565b6000610bae82610b83565b9050919050565b610bbe81610ba3565b8114610bc957600080fd5b50565b600081359050610bdb81610bb5565b92915050565b600060208284031215610bf757610bf6610b79565b5b6000610c0584828501610bcc565b91505092915050565b600081519050919050565b600082825260208201905092915050565b60005b83811015610c48578082015181840152602081019050610c2d565b60008484015250505050565b6000601f19601f8301169050919050565b6000610c7082610c0e565b610c7a8185610c19565b9350610c8a818560208601610c2a565b610c9381610c54565b840191505092915050565b610ca781610ba3565b82525050565b60006040820190508181036000830152610cc78185610c65565b9050610cd66020830184610c9e565b9392505050565b6000819050919050565b610cf081610cdd565b82525050565b6000602082019050610d0b6000830184610ce7565b92915050565b610d1a81610cdd565b8114610d2557600080fd5b50565b600081359050610d3781610d11565b92915050565b60008060408385031215610d5457610d53610b79565b5b6000610d6285828601610d28565b9250506020610d7385828601610bcc565b9150509250929050565b600081519050919050565b600082825260208201905092915050565b6000819050602082019050919050565b610db281610cdd565b82525050565b6000610dc48383610da9565b60208301905092915050565b6000602082019050919050565b6000610de882610d7d565b610df28185610d88565b9350610dfd83610d99565b8060005b83811015610e2e578151610e158882610db8565b9750610e2083610dd0565b925050600181019050610e01565b5085935050505092915050565b60006020820190508181036000830152610e558184610ddd565b905092915050565b600080fd5b600080fd5b7f4e487b7100000000000000000000000000000000000000000000000000000000600052604160045260246000fd5b610e9f82610c54565b810181811067ffffffffffffffff82111715610ebe57610ebd610e67565b5b80604052505050565b6000610ed1610b6f565b9050610edd8282610e96565b919050565b600067ffffffffffffffff821115610efd57610efc610e67565b5b610f0682610c54565b9050602081019050919050565b82818337600083830152505050565b6000610f35610f3084610ee2565b610ec7565b905082815260208101848484011115610f5157610f50610e62565b5b610f5c848285610f13565b509392505050565b600082601f830112610f7957610f78610e5d565b5b8135610f89848260208601610f22565b91505092915050565b60008060408385031215610fa957610fa8610b79565b5b600083013567ffffffffffffffff811115610fc757610fc6610b7e565b5b610fd385828601610f64565b9250506020610fe485828601610bcc565b9150509250929050565b60006020828403121561100457611003610b79565b5b600061101284828501610d28565b91505092915050565b600060808201905081810360008301526110358187610c65565b905081810360208301526110498186610c65565b90506110586040830185610ce7565b6110656060830184610c9e565b95945050505050565b600060208201905081810360008301526110888184610c65565b905092915050565b600080600080608085870312156110aa576110a9610b79565b5b600085013567ffffffffffffffff8111156110c8576110c7610b7e565b5b6110d487828801610f64565b945050602085013567ffffffffffffffff8111156110f5576110f4610b7e565b5b61110187828801610f64565b935050604061111287828801610d28565b925050606061112387828801610bcc565b91505092959194509250565b7f4e487b7100000000000000000000000000000000000000000000000000000000600052602260045260246000fd5b6000600282049050600182168061117657607f821691505b6020821081036111895761118861112f565b5b50919050565b7f496e76616c696420636172204944000000000000000000000000000000000000600082015250565b60006111c5600e83610c19565b91506111d08261118f565b602082019050919050565b600060208201905081810360008301526111f4816111b8565b9050919050565b7f596f7520617265206e6f74207468652063757272656e74206f776e6572206f6660008201527f2074686973206361720000000000000000000000000000000000000000000000602082015250565b6000611257602983610c19565b9150611262826111fb565b604082019050919050565b600060208201905081810360008301526112868161124a565b9050919050565b60006060820190506112a26000830186610ce7565b6112af6020830185610c9e565b6112bc6040830184610c9e565b949350505050565b7f4e487b7100000000000000000000000000000000000000000000000000000000600052603260045260246000fd5b7f4e487b7100000000000000000000000000000000000000000000000000000000600052601160045260246000fd5b600061132d82610cdd565b91507fffffffffffffffffffffffffffffffffffffffffffffffffffffffffffffffff820361135f5761135e6112f3565b5b600182019050919050565b7f4f776e6572206e616d652063616e6e6f7420626520656d707479000000000000600082015250565b60006113a0601a83610c19565b91506113ab8261136a565b602082019050919050565b600060208201905081810360008301526113cf81611393565b9050919050565b60008190508160005260206000209050919050565b60006020601f8301049050919050565b600082821b905092915050565b6000600883026114387fffffffffffffffffffffffffffffffffffffffffffffffffffffffffffffffff826113fb565b61144286836113fb565b95508019841693508086168417925050509392505050565b6000819050919050565b600061147f61147a61147584610cdd565b61145a565b610cdd565b9050919050565b6000819050919050565b61149983611464565b6114ad6114a582611486565b848454611408565b825550505050565b600090565b6114c26114b5565b6114cd818484611490565b505050565b5b818110156114f1576114e66000826114ba565b6001810190506114d3565b5050565b601f82111561153657611507816113d6565b611510846113eb565b8101602085101561151f578190505b61153361152b856113eb565b8301826114d2565b50505b505050565b600082821c905092915050565b60006115596000198460080261153b565b1980831691505092915050565b60006115728383611548565b9150826002028217905092915050565b61158b82610c0e565b67ffffffffffffffff8111156115a4576115a3610e67565b5b6115ae825461115e565b6115b98282856114f5565b600060209050601f8311600181146115ec57600084156115da578287015190505b6115e48582611566565b86555061164c565b601f1984166115fa866113d6565b60005b82811015611622578489015182556001820191506020850194506020810190506115fd565b8683101561163f578489015161163b601f891682611548565b8355505b6001600288020188555050505b505050505050565b60006040820190506116696000830185610c9e565b818103602083015261167b8184610c65565b90509392505050565b600060a0820190506116996000830188610ce7565b81810360208301526116ab8187610c65565b905081810360408301526116bf8186610c65565b90506116ce6060830185610ce7565b6116db6080830184610c9e565b969550505050505056fea264697066735822122051c5f46c36f047a72111951382f570a471e19ed49810344e9a9c5c2a2e484db564736f6c63430008130033",
  "linkReferences": {},
  "deployedLinkReferences": {}
}