{"contracts/CarOwnership.sol":{"CarOwnership":{"abi":[{"anonymous":false,"inputs":[{"indexed":false,"internalType":"uint256","name":"carId","type":"uint256"},{"indexed":false,"internalType":"string","name":"make","type":"string"},{"indexed":false,"internalType":"string","name":"model","type":"string"},{"indexed":false,"internalType":"uint256","name":"year","type":"uint256"},{"indexed":false,"internalType":"address","name":"owner","type":"address"}],"name":"CarAdded","type":"event"},{"anonymous":false,"inputs":[{"indexed":false,"internalType":"address","name":"owner","type":"address"},{"indexed":false,"internalType":"string","name":"name","type":"string"}],"name":"OwnerAdded","type":"event"},{"anonymous":false,"inputs":[{"indexed":false,"internalType":"uint256","name":"carId","type":"uint256"},{"indexed":false,"internalType":"address","name":"previousOwner","type":"address"},{"indexed":false,"internalType":"address","name":"newOwner","type":"address"}],"name":"OwnershipTransferred","type":"event"},{"anonymous":false,"inputs":[{"indexed":false,"internalType":"uint256","name":"transactionId","type":"uint256"},{"indexed":false,"internalType":"uint256","name":"carId","type":"uint256"},{"indexed":false,"internalType":"address","name":"previousOwner","type":"address"},{"indexed":false,"internalType":"address","name":"newOwner","type":"address"},{"indexed":false,"internalType":"uint256","name":"timestamp","type":"uint256"}],"name":"TransactionRecorded","type":"event"},{"inputs":[{"internalType":"string","name":"_make","type":"string"},{"internalType":"string","name":"_model","type":"string"},{"internalType":"uint256","name":"_year","type":"uint256"},{"internalType":"address","name":"_owner","type":"address"}],"name":"addCar","outputs":[],"stateMutability":"nonpayable","type":"function"},{"inputs":[{"internalType":"string","name":"_name","type":"string"},{"internalType":"address","name":"_owner","type":"address"}],"name":"addOwner","outputs":[],"stateMutability":"nonpayable","type":"function"},{"inputs":[{"internalType":"uint256","name":"","type":"uint256"}],"name":"cars","outputs":[{"internalType":"string","name":"make","type":"string"},{"internalType":"string","name":"model","type":"string"},{"internalType":"uint256","name":"year","type":"uint256"},{"internalType":"address","name":"owner","type":"address"}],"stateMutability":"view","type":"function"},{"inputs":[{"internalType":"uint256","name":"_carId","type":"uint256"},{"internalType":"address","name":"_newOwner","type":"address"}],"name":"changeOwner","outputs":[],"stateMutability":"nonpayable","type":"function"},{"inputs":[],"name":"getAllTransactions","outputs":[{"components":[{"internalType":"uint256","name":"carId","type":"uint256"},{"internalType":"address","name":"previousOwner","type":"address"},{"internalType":"address","name":"newOwner","type":"address"},{"internalType":"uint256","name":"timestamp","type":"uint256"}],"internalType":"struct CarOwnership.Transaction[]","name":"","type":"tuple[]"}],"stateMutability":"view","type":"function"},{"inputs":[{"internalType":"address","name":"_owner","type":"address"}],"name":"getOwner","outputs":[{"internalType":"string","name":"","type":"string"}],"stateMutability":"view","type":"function"},{"inputs":[{"internalType":"address","name":"_owner","type":"address"}],"name":"getOwnerCars","outputs":[{"internalType":"uint256[]","name":"","type":"uint256[]"}],"stateMutability":"view","type":"function"},{"inputs":[{"internalType":"address","name":"","type":"address"}],"name":"owners","outputs":[{"internalType":"string","name":"name","type":"string"},{"internalType":"address","name":"owner","type":"address"}],"stateMutability":"view","type":"function"},{"inputs":[],"name":"totalCars","outputs":[{"internalType":"uint256","name":"","type":"uint256"}],"stateMutability":"view","type":"function"},{"inputs":[],"name":"totalTransactions","outputs":[{"internalType":"uint256","name":"","type":"uint256"}],"stateMutability":"view","type":"function"},{"inputs":[{"internalType":"uint256","name":"","type":"uint256"}],"name":"transactions","outputs":[{"internalType":"uint256","name":"carId","type":"uint256"},{"internalType":"address","name":"previousOwner","type":"address"},{"internalType":"address","name":"newOwner","type":"address"},{"internalType":"uint256","name":"timestamp","type":"uint256"}],"stateMutability":"view","type":"function"}],"evm":{"bytecode":{"linkReferences":{},"object":"608060405234801561001057600080fd5b50611e79806100206000396000f3fe608060405234801561001057600080fd5b50600436106100a95760003560e01c80639ace38c2116100715780639ace38c214610167578063b9a600381461019a578063d5958b86146101b8578063f7746e36146101d4578063fa54416114610207578063fac2165a14610237576100a9565b8063022914a7146100ae578063214e563c146100df57806327506f53146100fd578063784796f71461011b578063914fe30914610137575b600080fd5b6100c860048036038101906100c3919061113e565b610253565b6040516100d692919061120a565b60405180910390f35b6100e761031f565b6040516100f49190611253565b60405180910390f35b610105610325565b6040516101129190611390565b60405180910390f35b610135600480360381019061013091906113de565b6104b4565b005b610151600480360381019061014c919061113e565b610808565b60405161015e91906114cd565b60405180910390f35b610181600480360381019061017c91906114ef565b6109c6565b604051610191949392919061151c565b60405180910390f35b6101a2610a36565b6040516101af9190611253565b60405180910390f35b6101d260048036038101906101cd9190611696565b610a3c565b005b6101ee60048036038101906101e991906114ef565b610b87565b6040516101fe94939291906116f2565b60405180910390f35b610221600480360381019061021c919061113e565b610ce7565b60405161022e9190611745565b60405180910390f35b610251600480360381019061024c9190611767565b610e78565b005b600160205280600052604060002060009150905080600001805461027690611835565b80601f01602080910402602001604051908101604052809291908181526020018280546102a290611835565b80156102ef5780601f106102c4576101008083540402835291602001916102ef565b820191906000526020600020905b8154815290600101906020018083116102d257829003601f168201915b5050505050908060010160009054906101000a900473ffffffffffffffffffffffffffffffffffffffff16905082565b60035481565b6060600060045467ffffffffffffffff8111156103455761034461156b565b5b60405190808252806020026020018201604052801561037e57816020015b61036b61100e565b8152602001906001900390816103635790505b5090506000600190505b60045481116104ac5760026000828152602001908152602001600020604051806080016040529081600082015481526020016001820160009054906101000a900473ffffffffffffffffffffffffffffffffffffffff1673ffffffffffffffffffffffffffffffffffffffff1673ffffffffffffffffffffffffffffffffffffffff1681526020016002820160009054906101000a900473ffffffffffffffffffffffffffffffffffffffff1673ffffffffffffffffffffffffffffffffffffffff1673ffffffffffffffffffffffffffffffffffffffff1681526020016003820154815250508260018361047d9190611895565b8151811061048e5761048d6118c9565b5b602002602001018190525080806104a4906118f8565b915050610388565b508091505090565b6003548211156104f9576040517f08c379a00000000000000000000000000000000000000000000000000000000081526004016104f09061198c565b60405180910390fd5b60008083815260200190815260200160002060030160009054906101000a900473ffffffffffffffffffffffffffffffffffffffff1673ffffffffffffffffffffffffffffffffffffffff163373ffffffffffffffffffffffffffffffffffffffff161461059c576040517f08c379a000000000000000000000000000000000000000000000000000000000815260040161059390611a1e565b60405180910390fd5b600080600084815260200190815260200160002060030160009054906101000a900473ffffffffffffffffffffffffffffffffffffffff1690508160008085815260200190815260200160002060030160006101000a81548173ffffffffffffffffffffffffffffffffffffffff021916908373ffffffffffffffffffffffffffffffffffffffff1602179055506004600081548092919061063d906118f8565b919050555060405180608001604052808481526020018273ffffffffffffffffffffffffffffffffffffffff1681526020018373ffffffffffffffffffffffffffffffffffffffff168152602001428152506002600060045481526020019081526020016000206000820151816000015560208201518160010160006101000a81548173ffffffffffffffffffffffffffffffffffffffff021916908373ffffffffffffffffffffffffffffffffffffffff16021790555060408201518160020160006101000a81548173ffffffffffffffffffffffffffffffffffffffff021916908373ffffffffffffffffffffffffffffffffffffffff1602179055506060820151816003015590505060008084815260200190815260200160002060040160045490806001815401808255809150506001900390600052602060002001600090919091909150557f16b85f49bf01212961345d3016c9a531894accf62eb7680f2045d79185cc0ec08382846040516107ba93929190611a3e565b60405180910390a17f4bb86a8504e257f90fe72dcaa3a3d0dfb04b72836b57aa6882b7bc2a1b82a4d1600454848385426040516107fb959493929190611a75565b60405180910390a1505050565b6060600060035467ffffffffffffffff8111156108285761082761156b565b5b6040519080825280602002602001820160405280156108565781602001602082028036833780820191505090505b509050600080600190505b6003548111610914578473ffffffffffffffffffffffffffffffffffffffff1660008083815260200190815260200160002060030160009054906101000a900473ffffffffffffffffffffffffffffffffffffffff1673ffffffffffffffffffffffffffffffffffffffff160361090157808383815181106108e6576108e56118c9565b5b60200260200101818152505081806108fd906118f8565b9250505b808061090c906118f8565b915050610861565b5060008167ffffffffffffffff8111156109315761093061156b565b5b60405190808252806020026020018201604052801561095f5781602001602082028036833780820191505090505b50905060005b828110156109ba578381815181106109805761097f6118c9565b5b602002602001015182828151811061099b5761099a6118c9565b5b60200260200101818152505080806109b2906118f8565b915050610965565b50809350505050919050565b60026020528060005260406000206000915090508060000154908060010160009054906101000a900473ffffffffffffffffffffffffffffffffffffffff16908060020160009054906101000a900473ffffffffffffffffffffffffffffffffffffffff16908060030154905084565b60045481565b6000825111610a80576040517f08c379a0000000000000000000000000000000000000000000000000000000008152600401610a7790611b14565b60405180910390fd5b60405180604001604052808381526020018273ffffffffffffffffffffffffffffffffffffffff16815250600160008373ffffffffffffffffffffffffffffffffffffffff1673ffffffffffffffffffffffffffffffffffffffff1681526020019081526020016000206000820151816000019081610aff9190611ce0565b5060208201518160010160006101000a81548173ffffffffffffffffffffffffffffffffffffffff021916908373ffffffffffffffffffffffffffffffffffffffff1602179055509050507f7adcb4720057d6b9b1d9dc7f206a6dc456794ecdbf145763cc55d76930c3ab868183604051610b7b929190611db2565b60405180910390a15050565b6000602052806000526040600020600091509050806000018054610baa90611835565b80601f0160208091040260200160405190810160405280929190818152602001828054610bd690611835565b8015610c235780601f10610bf857610100808354040283529160200191610c23565b820191906000526020600020905b815481529060010190602001808311610c0657829003601f168201915b505050505090806001018054610c3890611835565b80601f0160208091040260200160405190810160405280929190818152602001828054610c6490611835565b8015610cb15780601f10610c8657610100808354040283529160200191610cb1565b820191906000526020600020905b815481529060010190602001808311610c9457829003601f168201915b5050505050908060020154908060030160009054906101000a900473ffffffffffffffffffffffffffffffffffffffff16905084565b60606000600160008473ffffffffffffffffffffffffffffffffffffffff1673ffffffffffffffffffffffffffffffffffffffff168152602001908152602001600020604051806040016040529081600082018054610d4590611835565b80601f0160208091040260200160405190810160405280929190818152602001828054610d7190611835565b8015610dbe5780601f10610d9357610100808354040283529160200191610dbe565b820191906000526020600020905b815481529060010190602001808311610da157829003601f168201915b505050505081526020016001820160009054906101000a900473ffffffffffffffffffffffffffffffffffffffff1673ffffffffffffffffffffffffffffffffffffffff1673ffffffffffffffffffffffffffffffffffffffff16815250509050600081600001515103610e6a576040518060400160405280601c81526020017f4f776e657220686173206e6f74206164646564206e616d652079657400000000815250915050610e73565b80600001519150505b919050565b60036000815480929190610e8b906118f8565b91905055506040518060a001604052808581526020018481526020018381526020018273ffffffffffffffffffffffffffffffffffffffff168152602001600067ffffffffffffffff811115610ee457610ee361156b565b5b604051908082528060200260200182016040528015610f125781602001602082028036833780820191505090505b5081525060008060035481526020019081526020016000206000820151816000019081610f3f9190611ce0565b506020820151816001019081610f559190611ce0565b506040820151816002015560608201518160030160006101000a81548173ffffffffffffffffffffffffffffffffffffffff021916908373ffffffffffffffffffffffffffffffffffffffff1602179055506080820151816004019080519060200190610fc3929190611062565b509050507f3c6221d26c8cfdd8fbeb173e573eea85225eac7151869936d500b0a5aeed147560035485858585604051611000959493929190611de2565b60405180910390a150505050565b604051806080016040528060008152602001600073ffffffffffffffffffffffffffffffffffffffff168152602001600073ffffffffffffffffffffffffffffffffffffffff168152602001600081525090565b82805482825590600052602060002090810192821561109e579160200282015b8281111561109d578251825591602001919060010190611082565b5b5090506110ab91906110af565b5090565b5b808211156110c85760008160009055506001016110b0565b5090565b6000604051905090565b600080fd5b600080fd5b600073ffffffffffffffffffffffffffffffffffffffff82169050919050565b600061110b826110e0565b9050919050565b61111b81611100565b811461112657600080fd5b50565b60008135905061113881611112565b92915050565b600060208284031215611154576111536110d6565b5b600061116284828501611129565b91505092915050565b600081519050919050565b600082825260208201905092915050565b60005b838110156111a557808201518184015260208101905061118a565b60008484015250505050565b6000601f19601f8301169050919050565b60006111cd8261116b565b6111d78185611176565b93506111e7818560208601611187565b6111f0816111b1565b840191505092915050565b61120481611100565b82525050565b6000604082019050818103600083015261122481856111c2565b905061123360208301846111fb565b9392505050565b6000819050919050565b61124d8161123a565b82525050565b60006020820190506112686000830184611244565b92915050565b600081519050919050565b600082825260208201905092915050565b6000819050602082019050919050565b6112a38161123a565b82525050565b6112b281611100565b82525050565b6080820160008201516112ce600085018261129a565b5060208201516112e160208501826112a9565b5060408201516112f460408501826112a9565b506060820151611307606085018261129a565b50505050565b600061131983836112b8565b60808301905092915050565b6000602082019050919050565b600061133d8261126e565b6113478185611279565b93506113528361128a565b8060005b8381101561138357815161136a888261130d565b975061137583611325565b925050600181019050611356565b5085935050505092915050565b600060208201905081810360008301526113aa8184611332565b905092915050565b6113bb8161123a565b81146113c657600080fd5b50565b6000813590506113d8816113b2565b92915050565b600080604083850312156113f5576113f46110d6565b5b6000611403858286016113c9565b925050602061141485828601611129565b9150509250929050565b600081519050919050565b600082825260208201905092915050565b6000819050602082019050919050565b6000611456838361129a565b60208301905092915050565b6000602082019050919050565b600061147a8261141e565b6114848185611429565b935061148f8361143a565b8060005b838110156114c05781516114a7888261144a565b97506114b283611462565b925050600181019050611493565b5085935050505092915050565b600060208201905081810360008301526114e7818461146f565b905092915050565b600060208284031215611505576115046110d6565b5b6000611513848285016113c9565b91505092915050565b60006080820190506115316000830187611244565b61153e60208301866111fb565b61154b60408301856111fb565b6115586060830184611244565b95945050505050565b600080fd5b600080fd5b7f4e487b7100000000000000000000000000000000000000000000000000000000600052604160045260246000fd5b6115a3826111b1565b810181811067ffffffffffffffff821117156115c2576115c161156b565b5b80604052505050565b60006115d56110cc565b90506115e1828261159a565b919050565b600067ffffffffffffffff8211156116015761160061156b565b5b61160a826111b1565b9050602081019050919050565b82818337600083830152505050565b6000611639611634846115e6565b6115cb565b90508281526020810184848401111561165557611654611566565b5b611660848285611617565b509392505050565b600082601f83011261167d5761167c611561565b5b813561168d848260208601611626565b91505092915050565b600080604083850312156116ad576116ac6110d6565b5b600083013567ffffffffffffffff8111156116cb576116ca6110db565b5b6116d785828601611668565b92505060206116e885828601611129565b9150509250929050565b6000608082019050818103600083015261170c81876111c2565b9050818103602083015261172081866111c2565b905061172f6040830185611244565b61173c60608301846111fb565b95945050505050565b6000602082019050818103600083015261175f81846111c2565b905092915050565b60008060008060808587031215611781576117806110d6565b5b600085013567ffffffffffffffff81111561179f5761179e6110db565b5b6117ab87828801611668565b945050602085013567ffffffffffffffff8111156117cc576117cb6110db565b5b6117d887828801611668565b93505060406117e9878288016113c9565b92505060606117fa87828801611129565b91505092959194509250565b7f4e487b7100000000000000000000000000000000000000000000000000000000600052602260045260246000fd5b6000600282049050600182168061184d57607f821691505b6020821081036118605761185f611806565b5b50919050565b7f4e487b7100000000000000000000000000000000000000000000000000000000600052601160045260246000fd5b60006118a08261123a565b91506118ab8361123a565b92508282039050818111156118c3576118c2611866565b5b92915050565b7f4e487b7100000000000000000000000000000000000000000000000000000000600052603260045260246000fd5b60006119038261123a565b91507fffffffffffffffffffffffffffffffffffffffffffffffffffffffffffffffff820361193557611934611866565b5b600182019050919050565b7f496e76616c696420636172204944000000000000000000000000000000000000600082015250565b6000611976600e83611176565b915061198182611940565b602082019050919050565b600060208201905081810360008301526119a581611969565b9050919050565b7f596f7520617265206e6f74207468652063757272656e74206f776e6572206f6660008201527f2074686973206361720000000000000000000000000000000000000000000000602082015250565b6000611a08602983611176565b9150611a13826119ac565b604082019050919050565b60006020820190508181036000830152611a37816119fb565b9050919050565b6000606082019050611a536000830186611244565b611a6060208301856111fb565b611a6d60408301846111fb565b949350505050565b600060a082019050611a8a6000830188611244565b611a976020830187611244565b611aa460408301866111fb565b611ab160608301856111fb565b611abe6080830184611244565b9695505050505050565b7f4f776e6572206e616d652063616e6e6f7420626520656d707479000000000000600082015250565b6000611afe601a83611176565b9150611b0982611ac8565b602082019050919050565b60006020820190508181036000830152611b2d81611af1565b9050919050565b60008190508160005260206000209050919050565b60006020601f8301049050919050565b600082821b905092915050565b600060088302611b967fffffffffffffffffffffffffffffffffffffffffffffffffffffffffffffffff82611b59565b611ba08683611b59565b95508019841693508086168417925050509392505050565b6000819050919050565b6000611bdd611bd8611bd38461123a565b611bb8565b61123a565b9050919050565b6000819050919050565b611bf783611bc2565b611c0b611c0382611be4565b848454611b66565b825550505050565b600090565b611c20611c13565b611c2b818484611bee565b505050565b5b81811015611c4f57611c44600082611c18565b600181019050611c31565b5050565b601f821115611c9457611c6581611b34565b611c6e84611b49565b81016020851015611c7d578190505b611c91611c8985611b49565b830182611c30565b50505b505050565b600082821c905092915050565b6000611cb760001984600802611c99565b1980831691505092915050565b6000611cd08383611ca6565b9150826002028217905092915050565b611ce98261116b565b67ffffffffffffffff811115611d0257611d0161156b565b5b611d0c8254611835565b611d17828285611c53565b600060209050601f831160018114611d4a5760008415611d38578287015190505b611d428582611cc4565b865550611daa565b601f198416611d5886611b34565b60005b82811015611d8057848901518255600182019150602085019450602081019050611d5b565b86831015611d9d5784890151611d99601f891682611ca6565b8355505b6001600288020188555050505b505050505050565b6000604082019050611dc760008301856111fb565b8181036020830152611dd981846111c2565b90509392505050565b600060a082019050611df76000830188611244565b8181036020830152611e0981876111c2565b90508181036040830152611e1d81866111c2565b9050611e2c6060830185611244565b611e3960808301846111fb565b969550505050505056fea2646970667358221220009c8641119eb3de4198026463adf41d2206c0868577a2ba3a82da17e4eeeb1d64736f6c63430008130033","opcodes":"PUSH1 0x80 PUSH1 0x40 MSTORE CALLVALUE DUP1 ISZERO PUSH2 0x10 JUMPI PUSH1 0x0 DUP1 REVERT JUMPDEST POP PUSH2 0x1E79 DUP1 PUSH2 0x20 PUSH1 0x0 CODECOPY PUSH1 0x0 RETURN INVALID PUSH1 0x80 PUSH1 0x40 MSTORE CALLVALUE DUP1 ISZERO PUSH2 0x10 JUMPI PUSH1 0x0 DUP1 REVERT JUMPDEST POP PUSH1 0x4 CALLDATASIZE LT PUSH2 0xA9 JUMPI PUSH1 0x0 CALLDATALOAD PUSH1 0xE0 SHR DUP1 PUSH4 0x9ACE38C2 GT PUSH2 0x71 JUMPI DUP1 PUSH4 0x9ACE38C2 EQ PUSH2 0x167 JUMPI DUP1 PUSH4 0xB9A60038 EQ PUSH2 0x19A JUMPI DUP1 PUSH4 0xD5958B86 EQ PUSH2 0x1B8 JUMPI DUP1 PUSH4 0xF7746E36 EQ PUSH2 0x1D4 JUMPI DUP1 PUSH4 0xFA544161 EQ PUSH2 0x207 JUMPI DUP1 PUSH4 0xFAC2165A EQ PUSH2 0x237 JUMPI PUSH2 0xA9 JUMP JUMPDEST DUP1 PUSH4 0x22914A7 EQ PUSH2 0xAE JUMPI DUP1 PUSH4 0x214E563C EQ PUSH2 0xDF JUMPI DUP1 PUSH4 0x27506F53 EQ PUSH2 0xFD JUMPI DUP1 PUSH4 0x784796F7 EQ PUSH2 0x11B JUMPI DUP1 PUSH4 0x914FE309 EQ PUSH2 0x137 JUMPI JUMPDEST PUSH1 0x0 DUP1 REVERT JUMPDEST PUSH2 0xC8 PUSH1 0x4 DUP1 CALLDATASIZE SUB DUP2 ADD SWAP1 PUSH2 0xC3 SWAP2 SWAP1 PUSH2 0x113E JUMP JUMPDEST PUSH2 0x253 JUMP JUMPDEST PUSH1 0x40 MLOAD PUSH2 0xD6 SWAP3 SWAP2 SWAP1 PUSH2 0x120A JUMP JUMPDEST PUSH1 0x40 MLOAD DUP1 SWAP2 SUB SWAP1 RETURN JUMPDEST PUSH2 0xE7 PUSH2 0x31F JUMP JUMPDEST PUSH1 0x40 MLOAD PUSH2 0xF4 SWAP2 SWAP1 PUSH2 0x1253 JUMP JUMPDEST PUSH1 0x40 MLOAD DUP1 SWAP2 SUB SWAP1 RETURN JUMPDEST PUSH2 0x105 PUSH2 0x325 JUMP JUMPDEST PUSH1 0x40 MLOAD PUSH2 0x112 SWAP2 SWAP1 PUSH2 0x1390 JUMP JUMPDEST PUSH1 0x40 MLOAD DUP1 SWAP2 SUB SWAP1 RETURN JUMPDEST PUSH2 0x135 PUSH1 0x4 DUP1 CALLDATASIZE SUB DUP2 ADD SWAP1 PUSH2 0x130 SWAP2 SWAP1 PUSH2 0x13DE JUMP JUMPDEST PUSH2 0x4B4 JUMP JUMPDEST STOP JUMPDEST PUSH2 0x151 PUSH1 0x4 DUP1 CALLDATASIZE SUB DUP2 ADD SWAP1 PUSH2 0x14C SWAP2 SWAP1 PUSH2 0x113E JUMP JUMPDEST PUSH2 0x808 JUMP JUMPDEST PUSH1 0x40 MLOAD PUSH2 0x15E SWAP2 SWAP1 PUSH2 0x14CD JUMP JUMPDEST PUSH1 0x40 MLOAD DUP1 SWAP2 SUB SWAP1 RETURN JUMPDEST PUSH2 0x181 PUSH1 0x4 DUP1 CALLDATASIZE SUB DUP2 ADD SWAP1 PUSH2 0x17C SWAP2 SWAP1 PUSH2 0x14EF JUMP JUMPDEST PUSH2 0x9C6 JUMP JUMPDEST PUSH1 0x40 MLOAD PUSH2 0x191 SWAP5 SWAP4 SWAP3 SWAP2 SWAP1 PUSH2 0x151C JUMP JUMPDEST PUSH1 0x40 MLOAD DUP1 SWAP2 SUB SWAP1 RETURN JUMPDEST PUSH2 0x1A2 PUSH2 0xA36 JUMP JUMPDEST PUSH1 0x40 MLOAD PUSH2 0x1AF SWAP2 SWAP1 PUSH2 0x1253 JUMP JUMPDEST PUSH1 0x40 MLOAD DUP1 SWAP2 SUB SWAP1 RETURN JUMPDEST PUSH2 0x1D2 PUSH1 0x4 DUP1 CALLDATASIZE SUB DUP2 ADD SWAP1 PUSH2 0x1CD SWAP2 SWAP1 PUSH2 0x1696 JUMP JUMPDEST PUSH2 0xA3C JUMP JUMPDEST STOP JUMPDEST PUSH2 0x1EE PUSH1 0x4 DUP1 CALLDATASIZE SUB DUP2 ADD SWAP1 PUSH2 0x1E9 SWAP2 SWAP1 PUSH2 0x14EF JUMP JUMPDEST PUSH2 0xB87 JUMP JUMPDEST PUSH1 0x40 MLOAD PUSH2 0x1FE SWAP5 SWAP4 SWAP3 SWAP2 SWAP1 PUSH2 0x16F2 JUMP JUMPDEST PUSH1 0x40 MLOAD DUP1 SWAP2 SUB SWAP1 RETURN JUMPDEST PUSH2 0x221 PUSH1 0x4 DUP1 CALLDATASIZE SUB DUP2 ADD SWAP1 PUSH2 0x21C SWAP2 SWAP1 PUSH2 0x113E JUMP JUMPDEST PUSH2 0xCE7 JUMP JUMPDEST PUSH1 0x40 MLOAD PUSH2 0x22E SWAP2 SWAP1 PUSH2 0x1745 JUMP JUMPDEST PUSH1 0x40 MLOAD DUP1 SWAP2 SUB SWAP1 RETURN JUMPDEST PUSH2 0x251 PUSH1 0x4 DUP1 CALLDATASIZE SUB DUP2 ADD SWAP1 PUSH2 0x24C SWAP2 SWAP1 PUSH2 0x1767 JUMP JUMPDEST PUSH2 0xE78 JUMP JUMPDEST STOP JUMPDEST PUSH1 0x1 PUSH1 0x20 MSTORE DUP1 PUSH1 0x0 MSTORE PUSH1 0x40 PUSH1 0x0 KECCAK256 PUSH1 0x0 SWAP2 POP SWAP1 POP DUP1 PUSH1 0x0 ADD DUP1 SLOAD PUSH2 0x276 SWAP1 PUSH2 0x1835 JUMP JUMPDEST DUP1 PUSH1 0x1F ADD PUSH1 0x20 DUP1 SWAP2 DIV MUL PUSH1 0x20 ADD PUSH1 0x40 MLOAD SWAP1 DUP2 ADD PUSH1 0x40 MSTORE DUP1 SWAP3 SWAP2 SWAP1 DUP2 DUP2 MSTORE PUSH1 0x20 ADD DUP3 DUP1 SLOAD PUSH2 0x2A2 SWAP1 PUSH2 0x1835 JUMP JUMPDEST DUP1 ISZERO PUSH2 0x2EF JUMPI DUP1 PUSH1 0x1F LT PUSH2 0x2C4 JUMPI PUSH2 0x100 DUP1 DUP4 SLOAD DIV MUL DUP4 MSTORE SWAP2 PUSH1 0x20 ADD SWAP2 PUSH2 0x2EF JUMP JUMPDEST DUP3 ADD SWAP2 SWAP1 PUSH1 0x0 MSTORE PUSH1 0x20 PUSH1 0x0 KECCAK256 SWAP1 JUMPDEST DUP2 SLOAD DUP2 MSTORE SWAP1 PUSH1 0x1 ADD SWAP1 PUSH1 0x20 ADD DUP1 DUP4 GT PUSH2 0x2D2 JUMPI DUP3 SWAP1 SUB PUSH1 0x1F AND DUP3 ADD SWAP2 JUMPDEST POP POP POP POP POP SWAP1 DUP1 PUSH1 0x1 ADD PUSH1 0x0 SWAP1 SLOAD SWAP1 PUSH2 0x100 EXP SWAP1 DIV PUSH20 0xFFFFFFFFFFFFFFFFFFFFFFFFFFFFFFFFFFFFFFFF AND SWAP1 POP DUP3 JUMP JUMPDEST PUSH1 0x3 SLOAD DUP2 JUMP JUMPDEST PUSH1 0x60 PUSH1 0x0 PUSH1 0x4 SLOAD PUSH8 0xFFFFFFFFFFFFFFFF DUP2 GT ISZERO PUSH2 0x345 JUMPI PUSH2 0x344 PUSH2 0x156B JUMP JUMPDEST JUMPDEST PUSH1 0x40 MLOAD SWAP1 DUP1 DUP3 MSTORE DUP1 PUSH1 0x20 MUL PUSH1 0x20 ADD DUP3 ADD PUSH1 0x40 MSTORE DUP1 ISZERO PUSH2 0x37E JUMPI DUP2 PUSH1 0x20 ADD JUMPDEST PUSH2 0x36B PUSH2 0x100E JUMP JUMPDEST DUP2 MSTORE PUSH1 0x20 ADD SWAP1 PUSH1 0x1 SWAP1 SUB SWAP1 DUP2 PUSH2 0x363 JUMPI SWAP1 POP JUMPDEST POP SWAP1 POP PUSH1 0x0 PUSH1 0x1 SWAP1 POP JUMPDEST PUSH1 0x4 SLOAD DUP2 GT PUSH2 0x4AC JUMPI PUSH1 0x2 PUSH1 0x0 DUP3 DUP2 MSTORE PUSH1 0x20 ADD SWAP1 DUP2 MSTORE PUSH1 0x20 ADD PUSH1 0x0 KECCAK256 PUSH1 0x40 MLOAD DUP1 PUSH1 0x80 ADD PUSH1 0x40 MSTORE SWAP1 DUP2 PUSH1 0x0 DUP3 ADD SLOAD DUP2 MSTORE PUSH1 0x20 ADD PUSH1 0x1 DUP3 ADD PUSH1 0x0 SWAP1 SLOAD SWAP1 PUSH2 0x100 EXP SWAP1 DIV PUSH20 0xFFFFFFFFFFFFFFFFFFFFFFFFFFFFFFFFFFFFFFFF AND PUSH20 0xFFFFFFFFFFFFFFFFFFFFFFFFFFFFFFFFFFFFFFFF AND PUSH20 0xFFFFFFFFFFFFFFFFFFFFFFFFFFFFFFFFFFFFFFFF AND DUP2 MSTORE PUSH1 0x20 ADD PUSH1 0x2 DUP3 ADD PUSH1 0x0 SWAP1 SLOAD SWAP1 PUSH2 0x100 EXP SWAP1 DIV PUSH20 0xFFFFFFFFFFFFFFFFFFFFFFFFFFFFFFFFFFFFFFFF AND PUSH20 0xFFFFFFFFFFFFFFFFFFFFFFFFFFFFFFFFFFFFFFFF AND PUSH20 0xFFFFFFFFFFFFFFFFFFFFFFFFFFFFFFFFFFFFFFFF AND DUP2 MSTORE PUSH1 0x20 ADD PUSH1 0x3 DUP3 ADD SLOAD DUP2 MSTORE POP POP DUP3 PUSH1 0x1 DUP4 PUSH2 0x47D SWAP2 SWAP1 PUSH2 0x1895 JUMP JUMPDEST DUP2 MLOAD DUP2 LT PUSH2 0x48E JUMPI PUSH2 0x48D PUSH2 0x18C9 JUMP JUMPDEST JUMPDEST PUSH1 0x20 MUL PUSH1 0x20 ADD ADD DUP2 SWAP1 MSTORE POP DUP1 DUP1 PUSH2 0x4A4 SWAP1 PUSH2 0x18F8 JUMP JUMPDEST SWAP2 POP POP PUSH2 0x388 JUMP JUMPDEST POP DUP1 SWAP2 POP POP SWAP1 JUMP JUMPDEST PUSH1 0x3 SLOAD DUP3 GT ISZERO PUSH2 0x4F9 JUMPI PUSH1 0x40 MLOAD PUSH32 0x8C379A000000000000000000000000000000000000000000000000000000000 DUP2 MSTORE PUSH1 0x4 ADD PUSH2 0x4F0 SWAP1 PUSH2 0x198C JUMP JUMPDEST PUSH1 0x40 MLOAD DUP1 SWAP2 SUB SWAP1 REVERT JUMPDEST PUSH1 0x0 DUP1 DUP4 DUP2 MSTORE PUSH1 0x20 ADD SWAP1 DUP2 MSTORE PUSH1 0x20 ADD PUSH1 0x0 KECCAK256 PUSH1 0x3 ADD PUSH1 0x0 SWAP1 SLOAD SWAP1 PUSH2 0x100 EXP SWAP1 DIV PUSH20 0xFFFFFFFFFFFFFFFFFFFFFFFFFFFFFFFFFFFFFFFF AND PUSH20 0xFFFFFFFFFFFFFFFFFFFFFFFFFFFFFFFFFFFFFFFF AND CALLER PUSH20 0xFFFFFFFFFFFFFFFFFFFFFFFFFFFFFFFFFFFFFFFF AND EQ PUSH2 0x59C JUMPI PUSH1 0x40 MLOAD PUSH32 0x8C379A000000000000000000000000000000000000000000000000000000000 DUP2 MSTORE PUSH1 0x4 ADD PUSH2 0x593 SWAP1 PUSH2 0x1A1E JUMP JUMPDEST PUSH1 0x40 MLOAD DUP1 SWAP2 SUB SWAP1 REVERT JUMPDEST PUSH1 0x0 DUP1 PUSH1 0x0 DUP5 DUP2 MSTORE PUSH1 0x20 ADD SWAP1 DUP2 MSTORE PUSH1 0x20 ADD PUSH1 0x0 KECCAK256 PUSH1 0x3 ADD PUSH1 0x0 SWAP1 SLOAD SWAP1 PUSH2 0x100 EXP SWAP1 DIV PUSH20 0xFFFFFFFFFFFFFFFFFFFFFFFFFFFFFFFFFFFFFFFF AND SWAP1 POP DUP2 PUSH1 0x0 DUP1 DUP6 DUP2 MSTORE PUSH1 0x20 ADD SWAP1 DUP2 MSTORE PUSH1 0x20 ADD PUSH1 0x0 KECCAK256 PUSH1 0x3 ADD PUSH1 0x0 PUSH2 0x100 EXP DUP2 SLOAD DUP2 PUSH20 0xFFFFFFFFFFFFFFFFFFFFFFFFFFFFFFFFFFFFFFFF MUL NOT AND SWAP1 DUP4 PUSH20 0xFFFFFFFFFFFFFFFFFFFFFFFFFFFFFFFFFFFFFFFF AND MUL OR SWAP1 SSTORE POP PUSH1 0x4 PUSH1 0x0 DUP2 SLOAD DUP1 SWAP3 SWAP2 SWAP1 PUSH2 0x63D SWAP1 PUSH2 0x18F8 JUMP JUMPDEST SWAP2 SWAP1 POP SSTORE POP PUSH1 0x40 MLOAD DUP1 PUSH1 0x80 ADD PUSH1 0x40 MSTORE DUP1 DUP5 DUP2 MSTORE PUSH1 0x20 ADD DUP3 PUSH20 0xFFFFFFFFFFFFFFFFFFFFFFFFFFFFFFFFFFFFFFFF AND DUP2 MSTORE PUSH1 0x20 ADD DUP4 PUSH20 0xFFFFFFFFFFFFFFFFFFFFFFFFFFFFFFFFFFFFFFFF AND DUP2 MSTORE PUSH1 0x20 ADD TIMESTAMP DUP2 MSTORE POP PUSH1 0x2 PUSH1 0x0 PUSH1 0x4 SLOAD DUP2 MSTORE PUSH1 0x20 ADD SWAP1 DUP2 MSTORE PUSH1 0x20 ADD PUSH1 0x0 KECCAK256 PUSH1 0x0 DUP3 ADD MLOAD DUP2 PUSH1 0x0 ADD SSTORE PUSH1 0x20 DUP3 ADD MLOAD DUP2 PUSH1 0x1 ADD PUSH1 0x0 PUSH2 0x100 EXP DUP2 SLOAD DUP2 PUSH20 0xFFFFFFFFFFFFFFFFFFFFFFFFFFFFFFFFFFFFFFFF MUL NOT AND SWAP1 DUP4 PUSH20 0xFFFFFFFFFFFFFFFFFFFFFFFFFFFFFFFFFFFFFFFF AND MUL OR SWAP1 SSTORE POP PUSH1 0x40 DUP3 ADD MLOAD DUP2 PUSH1 0x2 ADD PUSH1 0x0 PUSH2 0x100 EXP DUP2 SLOAD DUP2 PUSH20 0xFFFFFFFFFFFFFFFFFFFFFFFFFFFFFFFFFFFFFFFF MUL NOT AND SWAP1 DUP4 PUSH20 0xFFFFFFFFFFFFFFFFFFFFFFFFFFFFFFFFFFFFFFFF AND MUL OR SWAP1 SSTORE POP PUSH1 0x60 DUP3 ADD MLOAD DUP2 PUSH1 0x3 ADD SSTORE SWAP1 POP POP PUSH1 0x0 DUP1 DUP5 DUP2 MSTORE PUSH1 0x20 ADD SWAP1 DUP2 MSTORE PUSH1 0x20 ADD PUSH1 0x0 KECCAK256 PUSH1 0x4 ADD PUSH1 0x4 SLOAD SWAP1 DUP1 PUSH1 0x1 DUP2 SLOAD ADD DUP1 DUP3 SSTORE DUP1 SWAP2 POP POP PUSH1 0x1 SWAP1 SUB SWAP1 PUSH1 0x0 MSTORE PUSH1 0x20 PUSH1 0x0 KECCAK256 ADD PUSH1 0x0 SWAP1 SWAP2 SWAP1 SWAP2 SWAP1 SWAP2 POP SSTORE PUSH32 0x16B85F49BF01212961345D3016C9A531894ACCF62EB7680F2045D79185CC0EC0 DUP4 DUP3 DUP5 PUSH1 0x40 MLOAD PUSH2 0x7BA SWAP4 SWAP3 SWAP2 SWAP1 PUSH2 0x1A3E JUMP JUMPDEST PUSH1 0x40 MLOAD DUP1 SWAP2 SUB SWAP1 LOG1 PUSH32 0x4BB86A8504E257F90FE72DCAA3A3D0DFB04B72836B57AA6882B7BC2A1B82A4D1 PUSH1 0x4 SLOAD DUP5 DUP4 DUP6 TIMESTAMP PUSH1 0x40 MLOAD PUSH2 0x7FB SWAP6 SWAP5 SWAP4 SWAP3 SWAP2 SWAP1 PUSH2 0x1A75 JUMP JUMPDEST PUSH1 0x40 MLOAD DUP1 SWAP2 SUB SWAP1 LOG1 POP POP POP JUMP JUMPDEST PUSH1 0x60 PUSH1 0x0 PUSH1 0x3 SLOAD PUSH8 0xFFFFFFFFFFFFFFFF DUP2 GT ISZERO PUSH2 0x828 JUMPI PUSH2 0x827 PUSH2 0x156B JUMP JUMPDEST JUMPDEST PUSH1 0x40 MLOAD SWAP1 DUP1 DUP3 MSTORE DUP1 PUSH1 0x20 MUL PUSH1 0x20 ADD DUP3 ADD PUSH1 0x40 MSTORE DUP1 ISZERO PUSH2 0x856 JUMPI DUP2 PUSH1 0x20 ADD PUSH1 0x20 DUP3 MUL DUP1 CALLDATASIZE DUP4 CALLDATACOPY DUP1 DUP3 ADD SWAP2 POP POP SWAP1 POP JUMPDEST POP SWAP1 POP PUSH1 0x0 DUP1 PUSH1 0x1 SWAP1 POP JUMPDEST PUSH1 0x3 SLOAD DUP2 GT PUSH2 0x914 JUMPI DUP5 PUSH20 0xFFFFFFFFFFFFFFFFFFFFFFFFFFFFFFFFFFFFFFFF AND PUSH1 0x0 DUP1 DUP4 DUP2 MSTORE PUSH1 0x20 ADD SWAP1 DUP2 MSTORE PUSH1 0x20 ADD PUSH1 0x0 KECCAK256 PUSH1 0x3 ADD PUSH1 0x0 SWAP1 SLOAD SWAP1 PUSH2 0x100 EXP SWAP1 DIV PUSH20 0xFFFFFFFFFFFFFFFFFFFFFFFFFFFFFFFFFFFFFFFF AND PUSH20 0xFFFFFFFFFFFFFFFFFFFFFFFFFFFFFFFFFFFFFFFF AND SUB PUSH2 0x901 JUMPI DUP1 DUP4 DUP4 DUP2 MLOAD DUP2 LT PUSH2 0x8E6 JUMPI PUSH2 0x8E5 PUSH2 0x18C9 JUMP JUMPDEST JUMPDEST PUSH1 0x20 MUL PUSH1 0x20 ADD ADD DUP2 DUP2 MSTORE POP POP DUP2 DUP1 PUSH2 0x8FD SWAP1 PUSH2 0x18F8 JUMP JUMPDEST SWAP3 POP POP JUMPDEST DUP1 DUP1 PUSH2 0x90C SWAP1 PUSH2 0x18F8 JUMP JUMPDEST SWAP2 POP POP PUSH2 0x861 JUMP JUMPDEST POP PUSH1 0x0 DUP2 PUSH8 0xFFFFFFFFFFFFFFFF DUP2 GT ISZERO PUSH2 0x931 JUMPI PUSH2 0x930 PUSH2 0x156B JUMP JUMPDEST JUMPDEST PUSH1 0x40 MLOAD SWAP1 DUP1 DUP3 MSTORE DUP1 PUSH1 0x20 MUL PUSH1 0x20 ADD DUP3 ADD PUSH1 0x40 MSTORE DUP1 ISZERO PUSH2 0x95F JUMPI DUP2 PUSH1 0x20 ADD PUSH1 0x20 DUP3 MUL DUP1 CALLDATASIZE DUP4 CALLDATACOPY DUP1 DUP3 ADD SWAP2 POP POP SWAP1 POP JUMPDEST POP SWAP1 POP PUSH1 0x0 JUMPDEST DUP3 DUP2 LT ISZERO PUSH2 0x9BA JUMPI DUP4 DUP2 DUP2 MLOAD DUP2 LT PUSH2 0x980 JUMPI PUSH2 0x97F PUSH2 0x18C9 JUMP JUMPDEST JUMPDEST PUSH1 0x20 MUL PUSH1 0x20 ADD ADD MLOAD DUP3 DUP3 DUP2 MLOAD DUP2 LT PUSH2 0x99B JUMPI PUSH2 0x99A PUSH2 0x18C9 JUMP JUMPDEST JUMPDEST PUSH1 0x20 MUL PUSH1 0x20 ADD ADD DUP2 DUP2 MSTORE POP POP DUP1 DUP1 PUSH2 0x9B2 SWAP1 PUSH2 0x18F8 JUMP JUMPDEST SWAP2 POP POP PUSH2 0x965 JUMP JUMPDEST POP DUP1 SWAP4 POP POP POP POP SWAP2 SWAP1 POP JUMP JUMPDEST PUSH1 0x2 PUSH1 0x20 MSTORE DUP1 PUSH1 0x0 MSTORE PUSH1 0x40 PUSH1 0x0 KECCAK256 PUSH1 0x0 SWAP2 POP SWAP1 POP DUP1 PUSH1 0x0 ADD SLOAD SWAP1 DUP1 PUSH1 0x1 ADD PUSH1 0x0 SWAP1 SLOAD SWAP1 PUSH2 0x100 EXP SWAP1 DIV PUSH20 0xFFFFFFFFFFFFFFFFFFFFFFFFFFFFFFFFFFFFFFFF AND SWAP1 DUP1 PUSH1 0x2 ADD PUSH1 0x0 SWAP1 SLOAD SWAP1 PUSH2 0x100 EXP SWAP1 DIV PUSH20 0xFFFFFFFFFFFFFFFFFFFFFFFFFFFFFFFFFFFFFFFF AND SWAP1 DUP1 PUSH1 0x3 ADD SLOAD SWAP1 POP DUP5 JUMP JUMPDEST PUSH1 0x4 SLOAD DUP2 JUMP JUMPDEST PUSH1 0x0 DUP3 MLOAD GT PUSH2 0xA80 JUMPI PUSH1 0x40 MLOAD PUSH32 0x8C379A000000000000000000000000000000000000000000000000000000000 DUP2 MSTORE PUSH1 0x4 ADD PUSH2 0xA77 SWAP1 PUSH2 0x1B14 JUMP JUMPDEST PUSH1 0x40 MLOAD DUP1 SWAP2 SUB SWAP1 REVERT JUMPDEST PUSH1 0x40 MLOAD DUP1 PUSH1 0x40 ADD PUSH1 0x40 MSTORE DUP1 DUP4 DUP2 MSTORE PUSH1 0x20 ADD DUP3 PUSH20 0xFFFFFFFFFFFFFFFFFFFFFFFFFFFFFFFFFFFFFFFF AND DUP2 MSTORE POP PUSH1 0x1 PUSH1 0x0 DUP4 PUSH20 0xFFFFFFFFFFFFFFFFFFFFFFFFFFFFFFFFFFFFFFFF AND PUSH20 0xFFFFFFFFFFFFFFFFFFFFFFFFFFFFFFFFFFFFFFFF AND DUP2 MSTORE PUSH1 0x20 ADD SWAP1 DUP2 MSTORE PUSH1 0x20 ADD PUSH1 0x0 KECCAK256 PUSH1 0x0 DUP3 ADD MLOAD DUP2 PUSH1 0x0 ADD SWAP1 DUP2 PUSH2 0xAFF SWAP2 SWAP1 PUSH2 0x1CE0 JUMP JUMPDEST POP PUSH1 0x20 DUP3 ADD MLOAD DUP2 PUSH1 0x1 ADD PUSH1 0x0 PUSH2 0x100 EXP DUP2 SLOAD DUP2 PUSH20 0xFFFFFFFFFFFFFFFFFFFFFFFFFFFFFFFFFFFFFFFF MUL NOT AND SWAP1 DUP4 PUSH20 0xFFFFFFFFFFFFFFFFFFFFFFFFFFFFFFFFFFFFFFFF AND MUL OR SWAP1 SSTORE POP SWAP1 POP POP PUSH32 0x7ADCB4720057D6B9B1D9DC7F206A6DC456794ECDBF145763CC55D76930C3AB86 DUP2 DUP4 PUSH1 0x40 MLOAD PUSH2 0xB7B SWAP3 SWAP2 SWAP1 PUSH2 0x1DB2 JUMP JUMPDEST PUSH1 0x40 MLOAD DUP1 SWAP2 SUB SWAP1 LOG1 POP POP JUMP JUMPDEST PUSH1 0x0 PUSH1 0x20 MSTORE DUP1 PUSH1 0x0 MSTORE PUSH1 0x40 PUSH1 0x0 KECCAK256 PUSH1 0x0 SWAP2 POP SWAP1 POP DUP1 PUSH1 0x0 ADD DUP1 SLOAD PUSH2 0xBAA SWAP1 PUSH2 0x1835 JUMP JUMPDEST DUP1 PUSH1 0x1F ADD PUSH1 0x20 DUP1 SWAP2 DIV MUL PUSH1 0x20 ADD PUSH1 0x40 MLOAD SWAP1 DUP2 ADD PUSH1 0x40 MSTORE DUP1 SWAP3 SWAP2 SWAP1 DUP2 DUP2 MSTORE PUSH1 0x20 ADD DUP3 DUP1 SLOAD PUSH2 0xBD6 SWAP1 PUSH2 0x1835 JUMP JUMPDEST DUP1 ISZERO PUSH2 0xC23 JUMPI DUP1 PUSH1 0x1F LT PUSH2 0xBF8 JUMPI PUSH2 0x100 DUP1 DUP4 SLOAD DIV MUL DUP4 MSTORE SWAP2 PUSH1 0x20 ADD SWAP2 PUSH2 0xC23 JUMP JUMPDEST DUP3 ADD SWAP2 SWAP1 PUSH1 0x0 MSTORE PUSH1 0x20 PUSH1 0x0 KECCAK256 SWAP1 JUMPDEST DUP2 SLOAD DUP2 MSTORE SWAP1 PUSH1 0x1 ADD SWAP1 PUSH1 0x20 ADD DUP1 DUP4 GT PUSH2 0xC06 JUMPI DUP3 SWAP1 SUB PUSH1 0x1F AND DUP3 ADD SWAP2 JUMPDEST POP POP POP POP POP SWAP1 DUP1 PUSH1 0x1 ADD DUP1 SLOAD PUSH2 0xC38 SWAP1 PUSH2 0x1835 JUMP JUMPDEST DUP1 PUSH1 0x1F ADD PUSH1 0x20 DUP1 SWAP2 DIV MUL PUSH1 0x20 ADD PUSH1 0x40 MLOAD SWAP1 DUP2 ADD PUSH1 0x40 MSTORE DUP1 SWAP3 SWAP2 SWAP1 DUP2 DUP2 MSTORE PUSH1 0x20 ADD DUP3 DUP1 SLOAD PUSH2 0xC64 SWAP1 PUSH2 0x1835 JUMP JUMPDEST DUP1 ISZERO PUSH2 0xCB1 JUMPI DUP1 PUSH1 0x1F LT PUSH2 0xC86 JUMPI PUSH2 0x100 DUP1 DUP4 SLOAD DIV MUL DUP4 MSTORE SWAP2 PUSH1 0x20 ADD SWAP2 PUSH2 0xCB1 JUMP JUMPDEST DUP3 ADD SWAP2 SWAP1 PUSH1 0x0 MSTORE PUSH1 0x20 PUSH1 0x0 KECCAK256 SWAP1 JUMPDEST DUP2 SLOAD DUP2 MSTORE SWAP1 PUSH1 0x1 ADD SWAP1 PUSH1 0x20 ADD DUP1 DUP4 GT PUSH2 0xC94 JUMPI DUP3 SWAP1 SUB PUSH1 0x1F AND DUP3 ADD SWAP2 JUMPDEST POP POP POP POP POP SWAP1 DUP1 PUSH1 0x2 ADD SLOAD SWAP1 DUP1 PUSH1 0x3 ADD PUSH1 0x0 SWAP1 SLOAD SWAP1 PUSH2 0x100 EXP SWAP1 DIV PUSH20 0xFFFFFFFFFFFFFFFFFFFFFFFFFFFFFFFFFFFFFFFF AND SWAP1 POP DUP5 JUMP JUMPDEST PUSH1 0x60 PUSH1 0x0 PUSH1 0x1 PUSH1 0x0 DUP5 PUSH20 0xFFFFFFFFFFFFFFFFFFFFFFFFFFFFFFFFFFFFFFFF AND PUSH20 0xFFFFFFFFFFFFFFFFFFFFFFFFFFFFFFFFFFFFFFFF AND DUP2 MSTORE PUSH1 0x20 ADD SWAP1 DUP2 MSTORE PUSH1 0x20 ADD PUSH1 0x0 KECCAK256 PUSH1 0x40 MLOAD DUP1 PUSH1 0x40 ADD PUSH1 0x40 MSTORE SWAP1 DUP2 PUSH1 0x0 DUP3 ADD DUP1 SLOAD PUSH2 0xD45 SWAP1 PUSH2 0x1835 JUMP JUMPDEST DUP1 PUSH1 0x1F ADD PUSH1 0x20 DUP1 SWAP2 DIV MUL PUSH1 0x20 ADD PUSH1 0x40 MLOAD SWAP1 DUP2 ADD PUSH1 0x40 MSTORE DUP1 SWAP3 SWAP2 SWAP1 DUP2 DUP2 MSTORE PUSH1 0x20 ADD DUP3 DUP1 SLOAD PUSH2 0xD71 SWAP1 PUSH2 0x1835 JUMP JUMPDEST DUP1 ISZERO PUSH2 0xDBE JUMPI DUP1 PUSH1 0x1F LT PUSH2 0xD93 JUMPI PUSH2 0x100 DUP1 DUP4 SLOAD DIV MUL DUP4 MSTORE SWAP2 PUSH1 0x20 ADD SWAP2 PUSH2 0xDBE JUMP JUMPDEST DUP3 ADD SWAP2 SWAP1 PUSH1 0x0 MSTORE PUSH1 0x20 PUSH1 0x0 KECCAK256 SWAP1 JUMPDEST DUP2 SLOAD DUP2 MSTORE SWAP1 PUSH1 0x1 ADD SWAP1 PUSH1 0x20 ADD DUP1 DUP4 GT PUSH2 0xDA1 JUMPI DUP3 SWAP1 SUB PUSH1 0x1F AND DUP3 ADD SWAP2 JUMPDEST POP POP POP POP POP DUP2 MSTORE PUSH1 0x20 ADD PUSH1 0x1 DUP3 ADD PUSH1 0x0 SWAP1 SLOAD SWAP1 PUSH2 0x100 EXP SWAP1 DIV PUSH20 0xFFFFFFFFFFFFFFFFFFFFFFFFFFFFFFFFFFFFFFFF AND PUSH20 0xFFFFFFFFFFFFFFFFFFFFFFFFFFFFFFFFFFFFFFFF AND PUSH20 0xFFFFFFFFFFFFFFFFFFFFFFFFFFFFFFFFFFFFFFFF AND DUP2 MSTORE POP POP SWAP1 POP PUSH1 0x0 DUP2 PUSH1 0x0 ADD MLOAD MLOAD SUB PUSH2 0xE6A JUMPI PUSH1 0x40 MLOAD DUP1 PUSH1 0x40 ADD PUSH1 0x40 MSTORE DUP1 PUSH1 0x1C DUP2 MSTORE PUSH1 0x20 ADD PUSH32 0x4F776E657220686173206E6F74206164646564206E616D652079657400000000 DUP2 MSTORE POP SWAP2 POP POP PUSH2 0xE73 JUMP JUMPDEST DUP1 PUSH1 0x0 ADD MLOAD SWAP2 POP POP JUMPDEST SWAP2 SWAP1 POP JUMP JUMPDEST PUSH1 0x3 PUSH1 0x0 DUP2 SLOAD DUP1 SWAP3 SWAP2 SWAP1 PUSH2 0xE8B SWAP1 PUSH2 0x18F8 JUMP JUMPDEST SWAP2 SWAP1 POP SSTORE POP PUSH1 0x40 MLOAD DUP1 PUSH1 0xA0 ADD PUSH1 0x40 MSTORE DUP1 DUP6 DUP2 MSTORE PUSH1 0x20 ADD DUP5 DUP2 MSTORE PUSH1 0x20 ADD DUP4 DUP2 MSTORE PUSH1 0x20 ADD DUP3 PUSH20 0xFFFFFFFFFFFFFFFFFFFFFFFFFFFFFFFFFFFFFFFF AND DUP2 MSTORE PUSH1 0x20 ADD PUSH1 0x0 PUSH8 0xFFFFFFFFFFFFFFFF DUP2 GT ISZERO PUSH2 0xEE4 JUMPI PUSH2 0xEE3 PUSH2 0x156B JUMP JUMPDEST JUMPDEST PUSH1 0x40 MLOAD SWAP1 DUP1 DUP3 MSTORE DUP1 PUSH1 0x20 MUL PUSH1 0x20 ADD DUP3 ADD PUSH1 0x40 MSTORE DUP1 ISZERO PUSH2 0xF12 JUMPI DUP2 PUSH1 0x20 ADD PUSH1 0x20 DUP3 MUL DUP1 CALLDATASIZE DUP4 CALLDATACOPY DUP1 DUP3 ADD SWAP2 POP POP SWAP1 POP JUMPDEST POP DUP2 MSTORE POP PUSH1 0x0 DUP1 PUSH1 0x3 SLOAD DUP2 MSTORE PUSH1 0x20 ADD SWAP1 DUP2 MSTORE PUSH1 0x20 ADD PUSH1 0x0 KECCAK256 PUSH1 0x0 DUP3 ADD MLOAD DUP2 PUSH1 0x0 ADD SWAP1 DUP2 PUSH2 0xF3F SWAP2 SWAP1 PUSH2 0x1CE0 JUMP JUMPDEST POP PUSH1 0x20 DUP3 ADD MLOAD DUP2 PUSH1 0x1 ADD SWAP1 DUP2 PUSH2 0xF55 SWAP2 SWAP1 PUSH2 0x1CE0 JUMP JUMPDEST POP PUSH1 0x40 DUP3 ADD MLOAD DUP2 PUSH1 0x2 ADD SSTORE PUSH1 0x60 DUP3 ADD MLOAD DUP2 PUSH1 0x3 ADD PUSH1 0x0 PUSH2 0x100 EXP DUP2 SLOAD DUP2 PUSH20 0xFFFFFFFFFFFFFFFFFFFFFFFFFFFFFFFFFFFFFFFF MUL NOT AND SWAP1 DUP4 PUSH20 0xFFFFFFFFFFFFFFFFFFFFFFFFFFFFFFFFFFFFFFFF AND MUL OR SWAP1 SSTORE POP PUSH1 0x80 DUP3 ADD MLOAD DUP2 PUSH1 0x4 ADD SWAP1 DUP1 MLOAD SWAP1 PUSH1 0x20 ADD SWAP1 PUSH2 0xFC3 SWAP3 SWAP2 SWAP1 PUSH2 0x1062 JUMP JUMPDEST POP SWAP1 POP POP PUSH32 0x3C6221D26C8CFDD8FBEB173E573EEA85225EAC7151869936D500B0A5AEED1475 PUSH1 0x3 SLOAD DUP6 DUP6 DUP6 DUP6 PUSH1 0x40 MLOAD PUSH2 0x1000 SWAP6 SWAP5 SWAP4 SWAP3 SWAP2 SWAP1 PUSH2 0x1DE2 JUMP JUMPDEST PUSH1 0x40 MLOAD DUP1 SWAP2 SUB SWAP1 LOG1 POP POP POP POP JUMP JUMPDEST PUSH1 0x40 MLOAD DUP1 PUSH1 0x80 ADD PUSH1 0x40 MSTORE DUP1 PUSH1 0x0 DUP2 MSTORE PUSH1 0x20 ADD PUSH1 0x0 PUSH20 0xFFFFFFFFFFFFFFFFFFFFFFFFFFFFFFFFFFFFFFFF AND DUP2 MSTORE PUSH1 0x20 ADD PUSH1 0x0 PUSH20 0xFFFFFFFFFFFFFFFFFFFFFFFFFFFFFFFFFFFFFFFF AND DUP2 MSTORE PUSH1 0x20 ADD PUSH1 0x0 DUP2 MSTORE POP SWAP1 JUMP JUMPDEST DUP3 DUP1 SLOAD DUP3 DUP3 SSTORE SWAP1 PUSH1 0x0 MSTORE PUSH1 0x20 PUSH1 0x0 KECCAK256 SWAP1 DUP2 ADD SWAP3 DUP3 ISZERO PUSH2 0x109E JUMPI SWAP2 PUSH1 0x20 MUL DUP3 ADD JUMPDEST DUP3 DUP2 GT ISZERO PUSH2 0x109D JUMPI DUP3 MLOAD DUP3 SSTORE SWAP2 PUSH1 0x20 ADD SWAP2 SWAP1 PUSH1 0x1 ADD SWAP1 PUSH2 0x1082 JUMP JUMPDEST JUMPDEST POP SWAP1 POP PUSH2 0x10AB SWAP2 SWAP1 PUSH2 0x10AF JUMP JUMPDEST POP SWAP1 JUMP JUMPDEST JUMPDEST DUP1 DUP3 GT ISZERO PUSH2 0x10C8 JUMPI PUSH1 0x0 DUP2 PUSH1 0x0 SWAP1 SSTORE POP PUSH1 0x1 ADD PUSH2 0x10B0 JUMP JUMPDEST POP SWAP1 JUMP JUMPDEST PUSH1 0x0 PUSH1 0x40 MLOAD SWAP1 POP SWAP1 JUMP JUMPDEST PUSH1 0x0 DUP1 REVERT JUMPDEST PUSH1 0x0 DUP1 REVERT JUMPDEST PUSH1 0x0 PUSH20 0xFFFFFFFFFFFFFFFFFFFFFFFFFFFFFFFFFFFFFFFF DUP3 AND SWAP1 POP SWAP2 SWAP1 POP JUMP JUMPDEST PUSH1 0x0 PUSH2 0x110B DUP3 PUSH2 0x10E0 JUMP JUMPDEST SWAP1 POP SWAP2 SWAP1 POP JUMP JUMPDEST PUSH2 0x111B DUP2 PUSH2 0x1100 JUMP JUMPDEST DUP2 EQ PUSH2 0x1126 JUMPI PUSH1 0x0 DUP1 REVERT JUMPDEST POP JUMP JUMPDEST PUSH1 0x0 DUP2 CALLDATALOAD SWAP1 POP PUSH2 0x1138 DUP2 PUSH2 0x1112 JUMP JUMPDEST SWAP3 SWAP2 POP POP JUMP JUMPDEST PUSH1 0x0 PUSH1 0x20 DUP3 DUP5 SUB SLT ISZERO PUSH2 0x1154 JUMPI PUSH2 0x1153 PUSH2 0x10D6 JUMP JUMPDEST JUMPDEST PUSH1 0x0 PUSH2 0x1162 DUP5 DUP3 DUP6 ADD PUSH2 0x1129 JUMP JUMPDEST SWAP2 POP POP SWAP3 SWAP2 POP POP JUMP JUMPDEST PUSH1 0x0 DUP2 MLOAD SWAP1 POP SWAP2 SWAP1 POP JUMP JUMPDEST PUSH1 0x0 DUP3 DUP3 MSTORE PUSH1 0x20 DUP3 ADD SWAP1 POP SWAP3 SWAP2 POP POP JUMP JUMPDEST PUSH1 0x0 JUMPDEST DUP4 DUP2 LT ISZERO PUSH2 0x11A5 JUMPI DUP1 DUP3 ADD MLOAD DUP2 DUP5 ADD MSTORE PUSH1 0x20 DUP2 ADD SWAP1 POP PUSH2 0x118A JUMP JUMPDEST PUSH1 0x0 DUP5 DUP5 ADD MSTORE POP POP POP POP JUMP JUMPDEST PUSH1 0x0 PUSH1 0x1F NOT PUSH1 0x1F DUP4 ADD AND SWAP1 POP SWAP2 SWAP1 POP JUMP JUMPDEST PUSH1 0x0 PUSH2 0x11CD DUP3 PUSH2 0x116B JUMP JUMPDEST PUSH2 0x11D7 DUP2 DUP6 PUSH2 0x1176 JUMP JUMPDEST SWAP4 POP PUSH2 0x11E7 DUP2 DUP6 PUSH1 0x20 DUP7 ADD PUSH2 0x1187 JUMP JUMPDEST PUSH2 0x11F0 DUP2 PUSH2 0x11B1 JUMP JUMPDEST DUP5 ADD SWAP2 POP POP SWAP3 SWAP2 POP POP JUMP JUMPDEST PUSH2 0x1204 DUP2 PUSH2 0x1100 JUMP JUMPDEST DUP3 MSTORE POP POP JUMP JUMPDEST PUSH1 0x0 PUSH1 0x40 DUP3 ADD SWAP1 POP DUP2 DUP2 SUB PUSH1 0x0 DUP4 ADD MSTORE PUSH2 0x1224 DUP2 DUP6 PUSH2 0x11C2 JUMP JUMPDEST SWAP1 POP PUSH2 0x1233 PUSH1 0x20 DUP4 ADD DUP5 PUSH2 0x11FB JUMP JUMPDEST SWAP4 SWAP3 POP POP POP JUMP JUMPDEST PUSH1 0x0 DUP2 SWAP1 POP SWAP2 SWAP1 POP JUMP JUMPDEST PUSH2 0x124D DUP2 PUSH2 0x123A JUMP JUMPDEST DUP3 MSTORE POP POP JUMP JUMPDEST PUSH1 0x0 PUSH1 0x20 DUP3 ADD SWAP1 POP PUSH2 0x1268 PUSH1 0x0 DUP4 ADD DUP5 PUSH2 0x1244 JUMP JUMPDEST SWAP3 SWAP2 POP POP JUMP JUMPDEST PUSH1 0x0 DUP2 MLOAD SWAP1 POP SWAP2 SWAP1 POP JUMP JUMPDEST PUSH1 0x0 DUP3 DUP3 MSTORE PUSH1 0x20 DUP3 ADD SWAP1 POP SWAP3 SWAP2 POP POP JUMP JUMPDEST PUSH1 0x0 DUP2 SWAP1 POP PUSH1 0x20 DUP3 ADD SWAP1 POP SWAP2 SWAP1 POP JUMP JUMPDEST PUSH2 0x12A3 DUP2 PUSH2 0x123A JUMP JUMPDEST DUP3 MSTORE POP POP JUMP JUMPDEST PUSH2 0x12B2 DUP2 PUSH2 0x1100 JUMP JUMPDEST DUP3 MSTORE POP POP JUMP JUMPDEST PUSH1 0x80 DUP3 ADD PUSH1 0x0 DUP3 ADD MLOAD PUSH2 0x12CE PUSH1 0x0 DUP6 ADD DUP3 PUSH2 0x129A JUMP JUMPDEST POP PUSH1 0x20 DUP3 ADD MLOAD PUSH2 0x12E1 PUSH1 0x20 DUP6 ADD DUP3 PUSH2 0x12A9 JUMP JUMPDEST POP PUSH1 0x40 DUP3 ADD MLOAD PUSH2 0x12F4 PUSH1 0x40 DUP6 ADD DUP3 PUSH2 0x12A9 JUMP JUMPDEST POP PUSH1 0x60 DUP3 ADD MLOAD PUSH2 0x1307 PUSH1 0x60 DUP6 ADD DUP3 PUSH2 0x129A JUMP JUMPDEST POP POP POP POP JUMP JUMPDEST PUSH1 0x0 PUSH2 0x1319 DUP4 DUP4 PUSH2 0x12B8 JUMP JUMPDEST PUSH1 0x80 DUP4 ADD SWAP1 POP SWAP3 SWAP2 POP POP JUMP JUMPDEST PUSH1 0x0 PUSH1 0x20 DUP3 ADD SWAP1 POP SWAP2 SWAP1 POP JUMP JUMPDEST PUSH1 0x0 PUSH2 0x133D DUP3 PUSH2 0x126E JUMP JUMPDEST PUSH2 0x1347 DUP2 DUP6 PUSH2 0x1279 JUMP JUMPDEST SWAP4 POP PUSH2 0x1352 DUP4 PUSH2 0x128A JUMP JUMPDEST DUP1 PUSH1 0x0 JUMPDEST DUP4 DUP2 LT ISZERO PUSH2 0x1383 JUMPI DUP2 MLOAD PUSH2 0x136A DUP9 DUP3 PUSH2 0x130D JUMP JUMPDEST SWAP8 POP PUSH2 0x1375 DUP4 PUSH2 0x1325 JUMP JUMPDEST SWAP3 POP POP PUSH1 0x1 DUP2 ADD SWAP1 POP PUSH2 0x1356 JUMP JUMPDEST POP DUP6 SWAP4 POP POP POP POP SWAP3 SWAP2 POP POP JUMP JUMPDEST PUSH1 0x0 PUSH1 0x20 DUP3 ADD SWAP1 POP DUP2 DUP2 SUB PUSH1 0x0 DUP4 ADD MSTORE PUSH2 0x13AA DUP2 DUP5 PUSH2 0x1332 JUMP JUMPDEST SWAP1 POP SWAP3 SWAP2 POP POP JUMP JUMPDEST PUSH2 0x13BB DUP2 PUSH2 0x123A JUMP JUMPDEST DUP2 EQ PUSH2 0x13C6 JUMPI PUSH1 0x0 DUP1 REVERT JUMPDEST POP JUMP JUMPDEST PUSH1 0x0 DUP2 CALLDATALOAD SWAP1 POP PUSH2 0x13D8 DUP2 PUSH2 0x13B2 JUMP JUMPDEST SWAP3 SWAP2 POP POP JUMP JUMPDEST PUSH1 0x0 DUP1 PUSH1 0x40 DUP4 DUP6 SUB SLT ISZERO PUSH2 0x13F5 JUMPI PUSH2 0x13F4 PUSH2 0x10D6 JUMP JUMPDEST JUMPDEST PUSH1 0x0 PUSH2 0x1403 DUP6 DUP3 DUP7 ADD PUSH2 0x13C9 JUMP JUMPDEST SWAP3 POP POP PUSH1 0x20 PUSH2 0x1414 DUP6 DUP3 DUP7 ADD PUSH2 0x1129 JUMP JUMPDEST SWAP2 POP POP SWAP3 POP SWAP3 SWAP1 POP JUMP JUMPDEST PUSH1 0x0 DUP2 MLOAD SWAP1 POP SWAP2 SWAP1 POP JUMP JUMPDEST PUSH1 0x0 DUP3 DUP3 MSTORE PUSH1 0x20 DUP3 ADD SWAP1 POP SWAP3 SWAP2 POP POP JUMP JUMPDEST PUSH1 0x0 DUP2 SWAP1 POP PUSH1 0x20 DUP3 ADD SWAP1 POP SWAP2 SWAP1 POP JUMP JUMPDEST PUSH1 0x0 PUSH2 0x1456 DUP4 DUP4 PUSH2 0x129A JUMP JUMPDEST PUSH1 0x20 DUP4 ADD SWAP1 POP SWAP3 SWAP2 POP POP JUMP JUMPDEST PUSH1 0x0 PUSH1 0x20 DUP3 ADD SWAP1 POP SWAP2 SWAP1 POP JUMP JUMPDEST PUSH1 0x0 PUSH2 0x147A DUP3 PUSH2 0x141E JUMP JUMPDEST PUSH2 0x1484 DUP2 DUP6 PUSH2 0x1429 JUMP JUMPDEST SWAP4 POP PUSH2 0x148F DUP4 PUSH2 0x143A JUMP JUMPDEST DUP1 PUSH1 0x0 JUMPDEST DUP4 DUP2 LT ISZERO PUSH2 0x14C0 JUMPI DUP2 MLOAD PUSH2 0x14A7 DUP9 DUP3 PUSH2 0x144A JUMP JUMPDEST SWAP8 POP PUSH2 0x14B2 DUP4 PUSH2 0x1462 JUMP JUMPDEST SWAP3 POP POP PUSH1 0x1 DUP2 ADD SWAP1 POP PUSH2 0x1493 JUMP JUMPDEST POP DUP6 SWAP4 POP POP POP POP SWAP3 SWAP2 POP POP JUMP JUMPDEST PUSH1 0x0 PUSH1 0x20 DUP3 ADD SWAP1 POP DUP2 DUP2 SUB PUSH1 0x0 DUP4 ADD MSTORE PUSH2 0x14E7 DUP2 DUP5 PUSH2 0x146F JUMP JUMPDEST SWAP1 POP SWAP3 SWAP2 POP POP JUMP JUMPDEST PUSH1 0x0 PUSH1 0x20 DUP3 DUP5 SUB SLT ISZERO PUSH2 0x1505 JUMPI PUSH2 0x1504 PUSH2 0x10D6 JUMP JUMPDEST JUMPDEST PUSH1 0x0 PUSH2 0x1513 DUP5 DUP3 DUP6 ADD PUSH2 0x13C9 JUMP JUMPDEST SWAP2 POP POP SWAP3 SWAP2 POP POP JUMP JUMPDEST PUSH1 0x0 PUSH1 0x80 DUP3 ADD SWAP1 POP PUSH2 0x1531 PUSH1 0x0 DUP4 ADD DUP8 PUSH2 0x1244 JUMP JUMPDEST PUSH2 0x153E PUSH1 0x20 DUP4 ADD DUP7 PUSH2 0x11FB JUMP JUMPDEST PUSH2 0x154B PUSH1 0x40 DUP4 ADD DUP6 PUSH2 0x11FB JUMP JUMPDEST PUSH2 0x1558 PUSH1 0x60 DUP4 ADD DUP5 PUSH2 0x1244 JUMP JUMPDEST SWAP6 SWAP5 POP POP POP POP POP JUMP JUMPDEST PUSH1 0x0 DUP1 REVERT JUMPDEST PUSH1 0x0 DUP1 REVERT JUMPDEST PUSH32 0x4E487B7100000000000000000000000000000000000000000000000000000000 PUSH1 0x0 MSTORE PUSH1 0x41 PUSH1 0x4 MSTORE PUSH1 0x24 PUSH1 0x0 REVERT JUMPDEST PUSH2 0x15A3 DUP3 PUSH2 0x11B1 JUMP JUMPDEST DUP2 ADD DUP2 DUP2 LT PUSH8 0xFFFFFFFFFFFFFFFF DUP3 GT OR ISZERO PUSH2 0x15C2 JUMPI PUSH2 0x15C1 PUSH2 0x156B JUMP JUMPDEST JUMPDEST DUP1 PUSH1 0x40 MSTORE POP POP POP JUMP JUMPDEST PUSH1 0x0 PUSH2 0x15D5 PUSH2 0x10CC JUMP JUMPDEST SWAP1 POP PUSH2 0x15E1 DUP3 DUP3 PUSH2 0x159A JUMP JUMPDEST SWAP2 SWAP1 POP JUMP JUMPDEST PUSH1 0x0 PUSH8 0xFFFFFFFFFFFFFFFF DUP3 GT ISZERO PUSH2 0x1601 JUMPI PUSH2 0x1600 PUSH2 0x156B JUMP JUMPDEST JUMPDEST PUSH2 0x160A DUP3 PUSH2 0x11B1 JUMP JUMPDEST SWAP1 POP PUSH1 0x20 DUP2 ADD SWAP1 POP SWAP2 SWAP1 POP JUMP JUMPDEST DUP3 DUP2 DUP4 CALLDATACOPY PUSH1 0x0 DUP4 DUP4 ADD MSTORE POP POP POP JUMP JUMPDEST PUSH1 0x0 PUSH2 0x1639 PUSH2 0x1634 DUP5 PUSH2 0x15E6 JUMP JUMPDEST PUSH2 0x15CB JUMP JUMPDEST SWAP1 POP DUP3 DUP2 MSTORE PUSH1 0x20 DUP2 ADD DUP5 DUP5 DUP5 ADD GT ISZERO PUSH2 0x1655 JUMPI PUSH2 0x1654 PUSH2 0x1566 JUMP JUMPDEST JUMPDEST PUSH2 0x1660 DUP5 DUP3 DUP6 PUSH2 0x1617 JUMP JUMPDEST POP SWAP4 SWAP3 POP POP POP JUMP JUMPDEST PUSH1 0x0 DUP3 PUSH1 0x1F DUP4 ADD SLT PUSH2 0x167D JUMPI PUSH2 0x167C PUSH2 0x1561 JUMP JUMPDEST JUMPDEST DUP2 CALLDATALOAD PUSH2 0x168D DUP5 DUP3 PUSH1 0x20 DUP7 ADD PUSH2 0x1626 JUMP JUMPDEST SWAP2 POP POP SWAP3 SWAP2 POP POP JUMP JUMPDEST PUSH1 0x0 DUP1 PUSH1 0x40 DUP4 DUP6 SUB SLT ISZERO PUSH2 0x16AD JUMPI PUSH2 0x16AC PUSH2 0x10D6 JUMP JUMPDEST JUMPDEST PUSH1 0x0 DUP4 ADD CALLDATALOAD PUSH8 0xFFFFFFFFFFFFFFFF DUP2 GT ISZERO PUSH2 0x16CB JUMPI PUSH2 0x16CA PUSH2 0x10DB JUMP JUMPDEST JUMPDEST PUSH2 0x16D7 DUP6 DUP3 DUP7 ADD PUSH2 0x1668 JUMP JUMPDEST SWAP3 POP POP PUSH1 0x20 PUSH2 0x16E8 DUP6 DUP3 DUP7 ADD PUSH2 0x1129 JUMP JUMPDEST SWAP2 POP POP SWAP3 POP SWAP3 SWAP1 POP JUMP JUMPDEST PUSH1 0x0 PUSH1 0x80 DUP3 ADD SWAP1 POP DUP2 DUP2 SUB PUSH1 0x0 DUP4 ADD MSTORE PUSH2 0x170C DUP2 DUP8 PUSH2 0x11C2 JUMP JUMPDEST SWAP1 POP DUP2 DUP2 SUB PUSH1 0x20 DUP4 ADD MSTORE PUSH2 0x1720 DUP2 DUP7 PUSH2 0x11C2 JUMP JUMPDEST SWAP1 POP PUSH2 0x172F PUSH1 0x40 DUP4 ADD DUP6 PUSH2 0x1244 JUMP JUMPDEST PUSH2 0x173C PUSH1 0x60 DUP4 ADD DUP5 PUSH2 0x11FB JUMP JUMPDEST SWAP6 SWAP5 POP POP POP POP POP JUMP JUMPDEST PUSH1 0x0 PUSH1 0x20 DUP3 ADD SWAP1 POP DUP2 DUP2 SUB PUSH1 0x0 DUP4 ADD MSTORE PUSH2 0x175F DUP2 DUP5 PUSH2 0x11C2 JUMP JUMPDEST SWAP1 POP SWAP3 SWAP2 POP POP JUMP JUMPDEST PUSH1 0x0 DUP1 PUSH1 0x0 DUP1 PUSH1 0x80 DUP6 DUP8 SUB SLT ISZERO PUSH2 0x1781 JUMPI PUSH2 0x1780 PUSH2 0x10D6 JUMP JUMPDEST JUMPDEST PUSH1 0x0 DUP6 ADD CALLDATALOAD PUSH8 0xFFFFFFFFFFFFFFFF DUP2 GT ISZERO PUSH2 0x179F JUMPI PUSH2 0x179E PUSH2 0x10DB JUMP JUMPDEST JUMPDEST PUSH2 0x17AB DUP8 DUP3 DUP9 ADD PUSH2 0x1668 JUMP JUMPDEST SWAP5 POP POP PUSH1 0x20 DUP6 ADD CALLDATALOAD PUSH8 0xFFFFFFFFFFFFFFFF DUP2 GT ISZERO PUSH2 0x17CC JUMPI PUSH2 0x17CB PUSH2 0x10DB JUMP JUMPDEST JUMPDEST PUSH2 0x17D8 DUP8 DUP3 DUP9 ADD PUSH2 0x1668 JUMP JUMPDEST SWAP4 POP POP PUSH1 0x40 PUSH2 0x17E9 DUP8 DUP3 DUP9 ADD PUSH2 0x13C9 JUMP JUMPDEST SWAP3 POP POP PUSH1 0x60 PUSH2 0x17FA DUP8 DUP3 DUP9 ADD PUSH2 0x1129 JUMP JUMPDEST SWAP2 POP POP SWAP3 SWAP6 SWAP2 SWAP5 POP SWAP3 POP JUMP JUMPDEST PUSH32 0x4E487B7100000000000000000000000000000000000000000000000000000000 PUSH1 0x0 MSTORE PUSH1 0x22 PUSH1 0x4 MSTORE PUSH1 0x24 PUSH1 0x0 REVERT JUMPDEST PUSH1 0x0 PUSH1 0x2 DUP3 DIV SWAP1 POP PUSH1 0x1 DUP3 AND DUP1 PUSH2 0x184D JUMPI PUSH1 0x7F DUP3 AND SWAP2 POP JUMPDEST PUSH1 0x20 DUP3 LT DUP2 SUB PUSH2 0x1860 JUMPI PUSH2 0x185F PUSH2 0x1806 JUMP JUMPDEST JUMPDEST POP SWAP2 SWAP1 POP JUMP JUMPDEST PUSH32 0x4E487B7100000000000000000000000000000000000000000000000000000000 PUSH1 0x0 MSTORE PUSH1 0x11 PUSH1 0x4 MSTORE PUSH1 0x24 PUSH1 0x0 REVERT JUMPDEST PUSH1 0x0 PUSH2 0x18A0 DUP3 PUSH2 0x123A JUMP JUMPDEST SWAP2 POP PUSH2 0x18AB DUP4 PUSH2 0x123A JUMP JUMPDEST SWAP3 POP DUP3 DUP3 SUB SWAP1 POP DUP2 DUP2 GT ISZERO PUSH2 0x18C3 JUMPI PUSH2 0x18C2 PUSH2 0x1866 JUMP JUMPDEST JUMPDEST SWAP3 SWAP2 POP POP JUMP JUMPDEST PUSH32 0x4E487B7100000000000000000000000000000000000000000000000000000000 PUSH1 0x0 MSTORE PUSH1 0x32 PUSH1 0x4 MSTORE PUSH1 0x24 PUSH1 0x0 REVERT JUMPDEST PUSH1 0x0 PUSH2 0x1903 DUP3 PUSH2 0x123A JUMP JUMPDEST SWAP2 POP PUSH32 0xFFFFFFFFFFFFFFFFFFFFFFFFFFFFFFFFFFFFFFFFFFFFFFFFFFFFFFFFFFFFFFFF DUP3 SUB PUSH2 0x1935 JUMPI PUSH2 0x1934 PUSH2 0x1866 JUMP JUMPDEST JUMPDEST PUSH1 0x1 DUP3 ADD SWAP1 POP SWAP2 SWAP1 POP JUMP JUMPDEST PUSH32 0x496E76616C696420636172204944000000000000000000000000000000000000 PUSH1 0x0 DUP3 ADD MSTORE POP JUMP JUMPDEST PUSH1 0x0 PUSH2 0x1976 PUSH1 0xE DUP4 PUSH2 0x1176 JUMP JUMPDEST SWAP2 POP PUSH2 0x1981 DUP3 PUSH2 0x1940 JUMP JUMPDEST PUSH1 0x20 DUP3 ADD SWAP1 POP SWAP2 SWAP1 POP JUMP JUMPDEST PUSH1 0x0 PUSH1 0x20 DUP3 ADD SWAP1 POP DUP2 DUP2 SUB PUSH1 0x0 DUP4 ADD MSTORE PUSH2 0x19A5 DUP2 PUSH2 0x1969 JUMP JUMPDEST SWAP1 POP SWAP2 SWAP1 POP JUMP JUMPDEST PUSH32 0x596F7520617265206E6F74207468652063757272656E74206F776E6572206F66 PUSH1 0x0 DUP3 ADD MSTORE PUSH32 0x2074686973206361720000000000000000000000000000000000000000000000 PUSH1 0x20 DUP3 ADD MSTORE POP JUMP JUMPDEST PUSH1 0x0 PUSH2 0x1A08 PUSH1 0x29 DUP4 PUSH2 0x1176 JUMP JUMPDEST SWAP2 POP PUSH2 0x1A13 DUP3 PUSH2 0x19AC JUMP JUMPDEST PUSH1 0x40 DUP3 ADD SWAP1 POP SWAP2 SWAP1 POP JUMP JUMPDEST PUSH1 0x0 PUSH1 0x20 DUP3 ADD SWAP1 POP DUP2 DUP2 SUB PUSH1 0x0 DUP4 ADD MSTORE PUSH2 0x1A37 DUP2 PUSH2 0x19FB JUMP JUMPDEST SWAP1 POP SWAP2 SWAP1 POP JUMP JUMPDEST PUSH1 0x0 PUSH1 0x60 DUP3 ADD SWAP1 POP PUSH2 0x1A53 PUSH1 0x0 DUP4 ADD DUP7 PUSH2 0x1244 JUMP JUMPDEST PUSH2 0x1A60 PUSH1 0x20 DUP4 ADD DUP6 PUSH2 0x11FB JUMP JUMPDEST PUSH2 0x1A6D PUSH1 0x40 DUP4 ADD DUP5 PUSH2 0x11FB JUMP JUMPDEST SWAP5 SWAP4 POP POP POP POP JUMP JUMPDEST PUSH1 0x0 PUSH1 0xA0 DUP3 ADD SWAP1 POP PUSH2 0x1A8A PUSH1 0x0 DUP4 ADD DUP9 PUSH2 0x1244 JUMP JUMPDEST PUSH2 0x1A97 PUSH1 0x20 DUP4 ADD DUP8 PUSH2 0x1244 JUMP JUMPDEST PUSH2 0x1AA4 PUSH1 0x40 DUP4 ADD DUP7 PUSH2 0x11FB JUMP JUMPDEST PUSH2 0x1AB1 PUSH1 0x60 DUP4 ADD DUP6 PUSH2 0x11FB JUMP JUMPDEST PUSH2 0x1ABE PUSH1 0x80 DUP4 ADD DUP5 PUSH2 0x1244 JUMP JUMPDEST SWAP7 SWAP6 POP POP POP POP POP POP JUMP JUMPDEST PUSH32 0x4F776E6572206E616D652063616E6E6F7420626520656D707479000000000000 PUSH1 0x0 DUP3 ADD MSTORE POP JUMP JUMPDEST PUSH1 0x0 PUSH2 0x1AFE PUSH1 0x1A DUP4 PUSH2 0x1176 JUMP JUMPDEST SWAP2 POP PUSH2 0x1B09 DUP3 PUSH2 0x1AC8 JUMP JUMPDEST PUSH1 0x20 DUP3 ADD SWAP1 POP SWAP2 SWAP1 POP JUMP JUMPDEST PUSH1 0x0 PUSH1 0x20 DUP3 ADD SWAP1 POP DUP2 DUP2 SUB PUSH1 0x0 DUP4 ADD MSTORE PUSH2 0x1B2D DUP2 PUSH2 0x1AF1 JUMP JUMPDEST SWAP1 POP SWAP2 SWAP1 POP JUMP JUMPDEST PUSH1 0x0 DUP2 SWAP1 POP DUP2 PUSH1 0x0 MSTORE PUSH1 0x20 PUSH1 0x0 KECCAK256 SWAP1 POP SWAP2 SWAP1 POP JUMP JUMPDEST PUSH1 0x0 PUSH1 0x20 PUSH1 0x1F DUP4 ADD DIV SWAP1 POP SWAP2 SWAP1 POP JUMP JUMPDEST PUSH1 0x0 DUP3 DUP3 SHL SWAP1 POP SWAP3 SWAP2 POP POP JUMP JUMPDEST PUSH1 0x0 PUSH1 0x8 DUP4 MUL PUSH2 0x1B96 PUSH32 0xFFFFFFFFFFFFFFFFFFFFFFFFFFFFFFFFFFFFFFFFFFFFFFFFFFFFFFFFFFFFFFFF DUP3 PUSH2 0x1B59 JUMP JUMPDEST PUSH2 0x1BA0 DUP7 DUP4 PUSH2 0x1B59 JUMP JUMPDEST SWAP6 POP DUP1 NOT DUP5 AND SWAP4 POP DUP1 DUP7 AND DUP5 OR SWAP3 POP POP POP SWAP4 SWAP3 POP POP POP JUMP JUMPDEST PUSH1 0x0 DUP2 SWAP1 POP SWAP2 SWAP1 POP JUMP JUMPDEST PUSH1 0x0 PUSH2 0x1BDD PUSH2 0x1BD8 PUSH2 0x1BD3 DUP5 PUSH2 0x123A JUMP JUMPDEST PUSH2 0x1BB8 JUMP JUMPDEST PUSH2 0x123A JUMP JUMPDEST SWAP1 POP SWAP2 SWAP1 POP JUMP JUMPDEST PUSH1 0x0 DUP2 SWAP1 POP SWAP2 SWAP1 POP JUMP JUMPDEST PUSH2 0x1BF7 DUP4 PUSH2 0x1BC2 JUMP JUMPDEST PUSH2 0x1C0B PUSH2 0x1C03 DUP3 PUSH2 0x1BE4 JUMP JUMPDEST DUP5 DUP5 SLOAD PUSH2 0x1B66 JUMP JUMPDEST DUP3 SSTORE POP POP POP POP JUMP JUMPDEST PUSH1 0x0 SWAP1 JUMP JUMPDEST PUSH2 0x1C20 PUSH2 0x1C13 JUMP JUMPDEST PUSH2 0x1C2B DUP2 DUP5 DUP5 PUSH2 0x1BEE JUMP JUMPDEST POP POP POP JUMP JUMPDEST JUMPDEST DUP2 DUP2 LT ISZERO PUSH2 0x1C4F JUMPI PUSH2 0x1C44 PUSH1 0x0 DUP3 PUSH2 0x1C18 JUMP JUMPDEST PUSH1 0x1 DUP2 ADD SWAP1 POP PUSH2 0x1C31 JUMP JUMPDEST POP POP JUMP JUMPDEST PUSH1 0x1F DUP3 GT ISZERO PUSH2 0x1C94 JUMPI PUSH2 0x1C65 DUP2 PUSH2 0x1B34 JUMP JUMPDEST PUSH2 0x1C6E DUP5 PUSH2 0x1B49 JUMP JUMPDEST DUP2 ADD PUSH1 0x20 DUP6 LT ISZERO PUSH2 0x1C7D JUMPI DUP2 SWAP1 POP JUMPDEST PUSH2 0x1C91 PUSH2 0x1C89 DUP6 PUSH2 0x1B49 JUMP JUMPDEST DUP4 ADD DUP3 PUSH2 0x1C30 JUMP JUMPDEST POP POP JUMPDEST POP POP POP JUMP JUMPDEST PUSH1 0x0 DUP3 DUP3 SHR SWAP1 POP SWAP3 SWAP2 POP POP JUMP JUMPDEST PUSH1 0x0 PUSH2 0x1CB7 PUSH1 0x0 NOT DUP5 PUSH1 0x8 MUL PUSH2 0x1C99 JUMP JUMPDEST NOT DUP1 DUP4 AND SWAP2 POP POP SWAP3 SWAP2 POP POP JUMP JUMPDEST PUSH1 0x0 PUSH2 0x1CD0 DUP4 DUP4 PUSH2 0x1CA6 JUMP JUMPDEST SWAP2 POP DUP3 PUSH1 0x2 MUL DUP3 OR SWAP1 POP SWAP3 SWAP2 POP POP JUMP JUMPDEST PUSH2 0x1CE9 DUP3 PUSH2 0x116B JUMP JUMPDEST PUSH8 0xFFFFFFFFFFFFFFFF DUP2 GT ISZERO PUSH2 0x1D02 JUMPI PUSH2 0x1D01 PUSH2 0x156B JUMP JUMPDEST JUMPDEST PUSH2 0x1D0C DUP3 SLOAD PUSH2 0x1835 JUMP JUMPDEST PUSH2 0x1D17 DUP3 DUP3 DUP6 PUSH2 0x1C53 JUMP JUMPDEST PUSH1 0x0 PUSH1 0x20 SWAP1 POP PUSH1 0x1F DUP4 GT PUSH1 0x1 DUP2 EQ PUSH2 0x1D4A JUMPI PUSH1 0x0 DUP5 ISZERO PUSH2 0x1D38 JUMPI DUP3 DUP8 ADD MLOAD SWAP1 POP JUMPDEST PUSH2 0x1D42 DUP6 DUP3 PUSH2 0x1CC4 JUMP JUMPDEST DUP7 SSTORE POP PUSH2 0x1DAA JUMP JUMPDEST PUSH1 0x1F NOT DUP5 AND PUSH2 0x1D58 DUP7 PUSH2 0x1B34 JUMP JUMPDEST PUSH1 0x0 JUMPDEST DUP3 DUP2 LT ISZERO PUSH2 0x1D80 JUMPI DUP5 DUP10 ADD MLOAD DUP3 SSTORE PUSH1 0x1 DUP3 ADD SWAP2 POP PUSH1 0x20 DUP6 ADD SWAP5 POP PUSH1 0x20 DUP2 ADD SWAP1 POP PUSH2 0x1D5B JUMP JUMPDEST DUP7 DUP4 LT ISZERO PUSH2 0x1D9D JUMPI DUP5 DUP10 ADD MLOAD PUSH2 0x1D99 PUSH1 0x1F DUP10 AND DUP3 PUSH2 0x1CA6 JUMP JUMPDEST DUP4 SSTORE POP JUMPDEST PUSH1 0x1 PUSH1 0x2 DUP9 MUL ADD DUP9 SSTORE POP POP POP JUMPDEST POP POP POP POP POP POP JUMP JUMPDEST PUSH1 0x0 PUSH1 0x40 DUP3 ADD SWAP1 POP PUSH2 0x1DC7 PUSH1 0x0 DUP4 ADD DUP6 PUSH2 0x11FB JUMP JUMPDEST DUP2 DUP2 SUB PUSH1 0x20 DUP4 ADD MSTORE PUSH2 0x1DD9 DUP2 DUP5 PUSH2 0x11C2 JUMP JUMPDEST SWAP1 POP SWAP4 SWAP3 POP POP POP JUMP JUMPDEST PUSH1 0x0 PUSH1 0xA0 DUP3 ADD SWAP1 POP PUSH2 0x1DF7 PUSH1 0x0 DUP4 ADD DUP9 PUSH2 0x1244 JUMP JUMPDEST DUP2 DUP2 SUB PUSH1 0x20 DUP4 ADD MSTORE PUSH2 0x1E09 DUP2 DUP8 PUSH2 0x11C2 JUMP JUMPDEST SWAP1 POP DUP2 DUP2 SUB PUSH1 0x40 DUP4 ADD MSTORE PUSH2 0x1E1D DUP2 DUP7 PUSH2 0x11C2 JUMP JUMPDEST SWAP1 POP PUSH2 0x1E2C PUSH1 0x60 DUP4 ADD DUP6 PUSH2 0x1244 JUMP JUMPDEST PUSH2 0x1E39 PUSH1 0x80 DUP4 ADD DUP5 PUSH2 0x11FB JUMP JUMPDEST SWAP7 SWAP6 POP POP POP POP POP POP JUMP INVALID LOG2 PUSH5 0x6970667358 0x22 SLT KECCAK256 STOP SWAP13 DUP7 COINBASE GT SWAP15 0xB3 0xDE COINBASE SWAP9 MUL PUSH5 0x63ADF41D22 MOD 0xC0 DUP7 DUP6 PUSH24 0xA2BA3A82DA17E4EEEB1D64736F6C63430008130033000000 "},"methodIdentifiers":{"addCar(string,string,uint256,address)":"fac2165a","addOwner(string,address)":"d5958b86","cars(uint256)":"f7746e36","changeOwner(uint256,address)":"784796f7","getAllTransactions()":"27506f53","getOwner(address)":"fa544161","getOwnerCars(address)":"914fe309","owners(address)":"022914a7","totalCars()":"214e563c","totalTransactions()":"b9a60038","transactions(uint256)":"9ace38c2"}}}}}